:020000040800F2
:10000000F81A0020CD040008250500082505000881
:10001000250500082505000825050008000000004A
:10002000000000000000000000000000250500089E
:10003000250500080000000025050008310700081C
:1000400025050008250500082505000825050008E8
:1000500025050008250500082505000825050008D8
:1000600025050008250500082505000825050008C8
:1000700025050008250500082505000825050008B8
:1000800025050008250500082505000825050008A8
:100090002505000825050008250500082505000898
:1000A0002505000825050008250500082505000888
:1000B0002505000825050008250500082505000878
:1000C0002505000825050008250500082505000868
:1000D0002505000815070008250500082505000866
:1000E0002505000825050008250500082505000848
:1000F0002505000825050008250500082505000838
:100100002505000825050008250500082505000827
:100110002505000825050008250500082505000817
:100120002505000825050008250500082505000807
:1001300025050008250500082505000825050008F7
:1001400025050008250500082505000825050008E7
:1001500025050008250500082505000825050008D7
:1001600025050008250500082505000825050008C7
:1001700025050008250500082505000825050008B7
:10018000250500082505000880B58AB000AF786015
:10019000396000237B6200233B620023FB61002364
:1001A000BB617B681B8A9BB27B627B6A23F44053F2
:1001B0007B623B68DB881A467B6A13437B627B6AFF
:1001C0009AB27B681A827B689B899BB27B627B6A4E
:1001D00023F4B05323F00C037B623B689A883B689E
:1001E0001B8913439AB23B685B8913439BB21A463F
:1001F0007B6A13437B627B6A9AB27B689A817B68D5
:100200009B8A9BB27B627B6A23F440737B623B6870
:100210009B891A467B6A13437B627B6A9AB27B682E
:100220009A8207F10803184600F094FA7B68314A75
:10023000934203D07B68304A934202D17B693B6290
:1002400001E03B693B627B689B899BB29BB21BB21E
:10025000002B0CDA3A6A13469B0013449A001A44A6
:100260003B681B685B00B2FBF3F3FB610BE03A6A8F
:1002700013469B0013449A001A443B681B689B007A
:10028000B2FBF3F3FB61FB691C4AA2FB03235B098E
:100290001B017B627B6A1B09642202FB03F3FA6980
:1002A000D31ABB617B689B899BB29BB21BB2002BAC
:1002B0000CDABB69DB003233104AA2FB03235B0973
:1002C00003F007037A6A13437B620BE0BB691B01EF
:1002D00032330A4AA2FB03235B0903F00F037A6A55
:1002E00013437B627B6A9AB27B681A812837BD46CA
:1002F00080BD00BF00100140001401401F85EB517C
:1003000080B483B000AF78600B467B807B88C3F3FA
:1003100008039AB27B689A800C37BD465DF8047B6F
:10032000704700BF80B483B000AF78607B689B8863
:100330009BB2C3F308039BB218460C37BD465DF869
:10034000047B704780B485B000AF78600B467B803B
:100350000023FB737B681B889AB27B8813409BB297
:10036000002B02D00123FB7301E00023FB73FB7B16
:1003700018461437BD465DF8047B704780B586B0DB
:1003800000AFF8607B600B467B8113467B72FB6895
:100390007B617B7A7A8902FB03F3184602F010FF37
:1003A00003461A467B691A607B697A899A807B6961
:1003B0000022DA807B697A7A1A727B697A68DA605D
:1003C0001837BD4680BD00BF80B584B000AF7860EF
:1003D00039607B68FB60FB68DA88FB689B889A421F
:1003E00032D3FB68DB6803F00103002B2AD0FB68E3
:1003F0001968FB681B68FA68127A1A44FB681B7A52
:100400001846FB689B88013B03FB00F30846114636
:100410001A4603F0A1F9FB681B68FA68127A1146C4
:10042000FA68D288013A02FB01F21A44FB681B7A8F
:10043000104639681A4603F08FF9FB689A88FB6802
:10044000DA8018E0002317E0FB681B68FA68127A6C
:100450001146FA68D28802FB01F21A44FB681B7A43
:10046000104639681A4603F077F9FB68DB880133D8
:100470009AB2FB68DA80012318461037BD4680BD6A
:1004800080B584B000AFF860B9607A60FB68DB8843
:100490001A467B689A4201D2002312E0FB681A6870
:1004A000FB681B7A19467B6803FB01F31046B968A9
:1004B0001A4603F01FF90346002B0CBF012300234B
:1004C000DBB218461037BD4680BD00BF80B582B094
:1004D00000AF0F4B7B600F4B3B6007E03B681A1D82
:1004E0003A607A68111D796012681A603B680A4A9E
:1004F0009342F3D309480A494FF000028842B8BF3B
:1005000040F8042BFADB00F0FBF80837BD4680BD4D
:100510007C490008000000206408002068080020D2
:10052000F812002080B400AFFEE700BF80B483B0B3
:1005300000AF0346FB71084997F907305B09FA7968
:1005400002F01F02012000FA02F241F823200C37CA
:10055000BD465DF8047B704700E100E080B483B0E5
:1005600000AF03463960FB7197F90730002B0BDAB7
:100570000D49FB7903F00F03043B3A68D2B2120134
:10058000D2B20B441A7609E0084997F907303A6865
:10059000D2B21201D2B20B4483F800230C37BD460D
:1005A0005DF8047B704700BF00ED00E000E100E073
:1005B00080B582B000AF78607B68B3F1807F01D3F3
:1005C000012311E00A4A7B6823F07F43013B53601B
:1005D0004FF0FF300F21FFF7C1FF054B00229A605B
:1005E000034B07221A60002318460837BD4680BD1A
:1005F00010E000E080B582B000AF0346FB71FB79EC
:100600009BB207481946FFF77BFE00BF04488021D4
:10061000FFF798FE0346012BF8D10837BD4680BD91
:100620000010014080B582B000AF78600CE07B68BC
:100630001B781846FFF7DEFF7B681B78002B00D184
:1006400005E07B6801337B607B68002BEFD10837C6
:10065000BD4680BD80B586B000AF01F0CFFE01F091
:10066000F9FE1020012100F03DF90120012100F0E8
:100670001BF902233B750123BB750C233B6100234F
:10068000FB7503237B7507F110031548194601F02C
:1006900027FE4FF4E1333B600C237B810023BB80BA
:1006A0000023FB8000233B810023BB813B460D4898
:1006B0001946FFF769FD0C4B1B685B090B4AA2FB4F
:1006C0000323DB091846FFF773FF2520FFF72EFFF2
:1006D0004FF0FF30FFF72AFF1837BD4680BD00BF3F
:1006E00000000240001001403C040020C55A7C0A72
:1006F00080B500AF012000F0E7FB01F0C1FF80BD35
:1007000080B500AFFFF7A6FFFFF7F2FF00F0E4FEB1
:10071000FCE700BF80B500AF0448FFF703FE0346C7
:10072000DBB2184601F0E8FB80BD00BF00100140BD
:1007300080B400AF064BD3E90023013243F100033C
:100740000349C1E90023BD465DF8047B704700BF43
:100750006808002080B489B000AF78600023BB61D6
:1007600000237B610023FB6102233B610023FB60CC
:100770000223BB60484B9B6803F00C03BB61BB6961
:10078000042B07D0082B09D0002B3FD17B68434AAC
:100790001A603FE07B68424A1A603BE03E4B5B6870
:1007A00003F480039B0DFB603B4B5B6803F03F034E
:1007B000BB60FB68002B0DD0394ABB68B2FBF3F27B
:1007C000354B596847F6C0730B409B0903FB02F396
:1007D000FB610CE0314ABB68B2FBF3F22E4B596867
:1007E00047F6C0730B409B0903FB02F3FB612A4BE6
:1007F0005B6803F440331B0C01335B003B61FA6917
:100800003B69B2FBF3F27B681A6003E07B68234A22
:100810001A6000BF204B9B6803F0F003BB61BB690B
:100820001B09BB611F4ABB6913441B78DBB27B61A8
:100830007B681A687B69DA407B685A60164B9B6854
:1008400003F4E053BB61BB699B0ABB61154ABB69FA
:1008500013441B78DBB27B617B685A687B69DA40A2
:100860007B689A600C4B9B6803F46043BB61BB6977
:100870005B0BBB610B4ABB6913441B78DBB27B612A
:100880007B685A687B69DA407B68DA602437BD464A
:100890005DF8047B704700BF003802400024F4007C
:1008A00040787D010000002080B483B000AF786004
:1008B0000B46FB70FB78002B06D00949084B1A6BDE
:1008C0007B6813430B6306E00549054B1A6B7B6895
:1008D000DB4313400B630C37BD465DF8047B704768
:1008E0000038024080B483B000AF78600B46FB70E4
:1008F000FB78002B06D00949084B1A6C7B68134320
:100900000B6406E00549054B1A6C7B68DB4313401A
:100910000B640C37BD465DF8047B7047003802401D
:1009200080B483B000AF78600B46FB707B68FA78C8
:100930001A70012318460C37BD465DF8047B7047DA
:1009400080B485B000AF786039600023FB600AE0B6
:100950007B685A1C7A603A68511C396012781A70A8
:10096000FB680133FB603B681B78002BF0D1FB6810
:1009700018461437BD465DF8047B704780B586B0D5
:1009800000AFF8607A603B600B46FB7200237B612E
:100990007B68013B7B603B68092B10D93B681E4A92
:1009A000A2FB0323DB08FA7AF86811467A68FFF79E
:1009B000E5FF78617B69FA681344FB6011E00DE0A4
:1009C000FB7AF8681946FFF7ABFFFB680133FB6061
:1009D0007B6901337B617B68013B7B607B68002B1B
:1009E000EEDC39680C4BA3FB0123DA0813469B00AD
:1009F00013445B00CA1AD3B23033DBB2F86819462D
:100A0000FFF78EFF02467B6913447B617B691846C2
:100A10001837BD4680BD00BFCDCCCCCC90B587B0DB
:100A200000AFF8607A603B600B46FB7200237B618D
:100A30003B68002B03DA3B685B423B6101E03B68AB
:100A40003B617B68013B7B603B69092B25D93B6897
:100A5000002B0FDA3B69314AA2FB0323DB085B4220
:100A60001C46FB7AF86819467A682346FFF7D6FFDA
:100A700078610DE03B69294AA2FB0323DB081C4691
:100A8000FB7AF86819467A682346FFF7C7FF786152
:100A90007B69FA681344FB6025E03B68002B02DAAF
:100AA0007B68013B7B600DE0FB7AF8681946FFF735
:100AB00037FFFB680133FB607B6901337B617B6837
:100AC000013B7B607B68002BEEDC3B68002B0ADA85
:100AD000F8682D21FFF724FF02467B6913447B61F0
:100AE000FB680133FB6039690C4BA3FB0123DA0877
:100AF00013469B0013445B00CA1AD3B23033DBB2F7
:100B0000F8681946FFF70CFF02467B6913447B61C6
:100B10007B6918461C37BD4690BD00BFCDCCCCCC00
:100B200090B589B002AFF8607A601A460B46FB7246
:100B30001346BB7200237B617B68013B7B60BB6A11
:100B40001B09002B13D0BB6A1B09FA7ABC7A0093ED
:100B5000F86811467A682346FFF7E2FF02467B6990
:100B600013447B617B69FA681344FB6011E00DE07C
:100B7000FB7AF8681946FFF7D3FEFB680133FB6088
:100B80007B6901337B617B68013B7B607B68002B69
:100B9000EEDCBB6A03F00F03092B0BD8BB6ADBB298
:100BA00003F00F03DBB23033DBB2F8681946FFF70E
:100BB000B7FE19E0BB7A002B0BD0BB6ADBB203F0A7
:100BC0000F03DBB23733DBB2F8681946FFF7A8FE34
:100BD0000AE0BB6ADBB203F00F03DBB25733DBB2D0
:100BE000F8681946FFF79CFE7B6901337B617B69DE
:100BF00018461C37BD4690BD90B58BB002AFF8606B
:100C0000B9607A603B600023BB6100237B61FB68B5
:100C1000002B02D0FB6800221A70FCE07B681B7876
:100C2000252B0BD0FB685A1CFA607A68511C79603E
:100C300012781A707B6901337B61ECE07B680133C9
:100C40001B78252B0BD1FB685A1CFA6025221A70E1
:100C50007B6802337B607B6901337B61DBE02023AF
:100C6000FB770023BB777B6801337B607B681B7855
:100C7000302B04D13023FB777B6801337B600EE09F
:100C8000BB7F1A46920013445B00DAB27B681B7884
:100C90001344DBB2303BBB777B6801337B607B68FE
:100CA0001B782F2B03D97B681B78392BE8D9BA7FA7
:100CB0007B6913441A46BB689A4205D9BB68DAB20D
:100CC0007B69DBB2D31ABB777B681B78583B202B40
:100CD00000F2938001A252F823F000BFB30D000888
:100CE000FB0D0008FB0D0008FB0D0008FB0D0008C4
:100CF000FB0D0008FB0D0008FB0D0008FB0D0008B4
:100D0000FB0D0008FB0D0008E50D0008610D000853
:100D1000FB0D0008FB0D0008FB0D0008FB0D000893
:100D2000610D0008FB0D0008FB0D0008FB0D00081D
:100D3000FB0D0008FB0D0008FB0D0008FB0D000873
:100D4000FB0D0008FB0D0008D10D0008FB0D00088D
:100D50007B0D0008FB0D0008FB0D0008950D000839
:100D6000BC7F3B681A1D3A601B68FA7FF868114621
:100D70002246FFF753FEB86142E0BC7F3B681A1D74
:100D80003A601B68FA7FF86811462246FFF7F6FDC5
:100D9000B86135E0BC7F3B681A1D3A601B68FA7F7A
:100DA0000093F868114622460023FFF7B9FEB861A8
:100DB00026E0BC7F3B681A1D3A601B68FA7F0093EF
:100DC000F868114622460123FFF7AAFEB86117E032
:100DD0003B681A1D3A601B68F8681946FFF7B0FDBA
:100DE000B8610DE03B681A1D3A601B68DBB2F86819
:100DF0001946FFF795FDB86102E04FF0FF3325E09B
:100E00007B6801337B60BB69FA681344FB607A69D5
:100E1000BB6913447B617B681B78002B04D07A6923
:100E2000BB689A42FFF4FAAE7A69BB689A4203D271
:100E3000FB6800221A7008E0FB68013BFB60FB685E
:100E400000221A707B69013B7B617B69184624375D
:100E5000BD4690BD80B584B000AFF860B9607A60DF
:100E6000F8686421BA687B68FFF7C6FE0346184637
:100E70001037BD4680BD00BF0EB480B585B000AF51
:100E8000786007F12003BB607868F969BA68FFF7FA
:100E9000E1FFF860FB6818461437BD46BDE88040A6
:100EA00003B0704780B483B000AF064B1B78FB7172
:100EB000044B00221A70FB7918460C37BD465DF8CA
:100EC000047B704770080020F0B587B002AF03467E
:100ED000FB80C34BC34A14469E4604F1300C754652
:100EE00026460FCE28606960AA60EB6010340EF1D0
:100EF000100E6445F3D1734622461068186091883D
:100F0000927999809A71B648FFF78CFBB44BB64A38
:100F100014469E4604F1300C754626460FCE2860D6
:100F20006960AA60EB6010340EF1100E6445F3D1D5
:100F300073462246106818609188927999809A7158
:100F4000A748FFF76FFBA64AA84B14461D460FCDD6
:100F500020606160A260E3600FCD20616161A261E9
:100F6000E3619F48FFF75EFB9D4BA14A1068186044
:100F700012791A719A48FFF755FB994A9D4B15460D
:100F80001C460FCC28606960AA60EB60206828616D
:100F90009348FFF747FB924A974B15461C460FCCE8
:100FA00028606960AA60EB6003CC286169618C48A5
:100FB000FFF738FB8A4A914B144607CB20606160EB
:100FC000A2608748FFF72EFB854A8D4B1B88138054
:100FD0008348FFF727FB824A8A4B03CB106051609E
:100FE0001B7813727E48FFF71DFB7D4A864B144623
:100FF00007CB20606160A2607948FFF713FB784B54
:10100000794A14469E4604F1300C754626460FCEAA
:1010100028606960AA60EB6010340EF1100E644520
:10102000F3D17346224610681860918892799980AE
:101030009A716B48FFF7F6FA694B6A4A14469E4666
:1010400004F1300C754626460FCE28606960AA6010
:10105000EB6010340EF1100E6445F3D17346224656
:10106000106818609188927999809A715C48FFF7AE
:10107000D9FA5B4B654A1188927819809A70584862
:10108000FFF7D0FA624B002283F80C26604B002257
:10109000A3F804215E4B0022A3F806215C4B00223A
:1010A000A3F808215A4BB3F806311BB2584A13442F
:1010B00000221A74564B002283F86020544BB3F878
:1010C00006311BB2524A1344002283F86120504B70
:1010D000002283F8B1204E4BB3F808311BB24C4AC2
:1010E0001344002283F8B220494B002283F80221E6
:1010F000474B002283F80D26454B002283F8182623
:10110000444800210022002301F0E2FC424B0093FE
:10111000424843490022002300F0F6F9414B009376
:10112000414842490022002300F0EEF9FB8803F019
:101130000103002B0FD03E4B00933E483E49032253
:10114000002300F0E1F93D4B00933D483D4900226A
:10115000002300F0D9F9FB8803F00203002B17D01D
:10116000394B009339483A490122002300F0CCF969
:10117000384B0093384839490222002300F0C4F963
:10118000374B0093374838490222002300F0BCF95E
:101190001F4B93F80C36124834491A46FFF76CFE81
:1011A0000F48FFF73FFA0E4831495022FFF764FE1F
:1011B0000B48FFF737FA0A4B144A118892781980C6
:1011C0009A700748FFF72EFA502001F0F9FF034606
:1011D0001A460F4BC3F814260023FB7358E000BFD8
:1011E000AC08002084420008BC420008F442000819
:1011F000144300081C43000830430008484300081B
:101200005443000858430008644300087043000832
:10121000AC090020C80F00207C430008744300087C
:10122000ED1800089C43000898430008A519000821
:10123000B0430008A8430008B5190008E0430008BF
:10124000D8430008051A0008FC430008F4430008CE
:10125000311A00086044000858440008691A000860
:1012600000450008F8440008911A00089C45000851
:10127000B8450008154BD3F81426FB7B9B00D41807
:10128000102001F09DFF03462360FB7B0133FB73BD
:10129000FB7B132BEED90D48032101220123FFF71D
:1012A0006DF801F045FC0A4B0A4A118892781980C2
:1012B0009A700748FFF7B6F9054B074A106818609F
:1012C0000348FFF7AFF91437BD46F0BDAC09002065
:1012D000AC080020CC450008D045000880B582B09D
:1012E00000AF0346FB710A4BD3F81426FB79013398
:1012F0009B0013441B68184600210A2202F0DCFA06
:1013000002460B46134618460837BD4680BD00BF4F
:10131000AC09002080B582B000AF0346FB710A4BD8
:10132000D3F81426FB7901339B0013441B6818463D
:101330000021102202F0C0FA02460B46134618465E
:101340000837BD4680BD00BFAC09002080B584B021
:1013500000AF78603960786800F05EFA0346FB738E
:1013600097F90F30002B08D0FB7B1846FFF7D2FF10
:1013700002463B681A60012300E00023184610373C
:10138000BD4680BD80B588B000AF78600B46FB706D
:10139000FB78002B01D103236BE07B681B681846A8
:1013A00000F072FAF861FB69002B61D0FB78013B19
:1013B000FA69127A934201DA03235AE02F4B012291
:1013C00083F80D26FB695B8903F00103002B01D034
:1013D00000F0ACFB2A4BD3E900231046194601F07C
:1013E00039FD03461846274901F02EFE03461846EC
:1013F00001F0C6FE0346BB61FB691B68FA7878689A
:10140000114698470346FB751D4BD3E90023104650
:10141000194601F01FFD034618461A4901F014FE53
:101420000346184601F0ACFE03463B61FB695B894D
:1014300003F00203002B01D000F078FBFB695B890D
:1014400003F00403002B0DD03A69BB69D31A07F1EE
:1014500008021046194601F0C3FA07F108031846BE
:1014600000F042FB054B002283F80D26FB7D00E0D7
:10147000022318462037BD4680BD00BFAC090020BE
:10148000680800200000C84280B584B000AF7860D2
:1014900078680E490E4A01F055F90E4BD3F8142620
:1014A0000C4B93F81036DBB210461946FFF76AFF73
:1014B0000346FB73064801F0ADF9FB7B184600F0CC
:1014C000A3F8FB7B18461037BD4680BD5443000887
:1014D000BC0F0020AC09002080B500AF084B93F88A
:1014E0001836002B08D00748FFF7CEFF044B002228
:1014F00083F81826012300E00023184680BD00BFB2
:10150000AC090020BC09002080B586B000AFF860AF
:10151000B96011461A460B46FB711346BB80394B26
:1015200093F80C364F2B04D9012000F0EFF801237B
:1015300063E0BB68002B04D1022000F0E7F802232F
:101540005BE0F86801F09AF90346002B04D1032010
:1015500000F0DCF8032350E00023FB7515E0FB7D71
:10156000284A1B01134403F584739B681846F968E5
:1015700001F0D8F90346002B04D0042000F0C6F88F
:1015800004233AE0FB7D0133FB751E4B93F80C36C8
:10159000FA7D9A42E3D31B4B93F80C36BB75BB7DA7
:1015A000184A1B01134403F58473BA685A60BB7D63
:1015B000144A1B01134403F58473FA689A60BB7DD7
:1015C000104A11331B011344FA791A71BB7D0D4A7D
:1015D00011331B011344BA88DA80BB7D094A1133E9
:1015E0001B0113443A6A9A60064B93F80C36013398
:1015F000DAB2044B83F80C26002318461837BD4690
:1016000080BD00BFAC090020F0B583B000AF034639
:10161000FB71FB79023B032B55D801A252F823F052
:10162000311600085516000881160008A516000896
:101630002F4A304B15461C460FCC28606960AA60C3
:10164000EB6003CC2861696123782B762848FEF78C
:10165000E9FF39E0264B284A14469E4604F1300C37
:10166000754626460FCE28606960AA60EB6010348C
:101670000EF1100E6445F3D11D48FEF7D3FF23E0B1
:101680001B4A1E4B15461C460FCC28606960AA6099
:10169000EB6003CC2861696123782B761448FEF750
:1016A000C1FF11E0124A164B15461C460FCC2860AC
:1016B0006960AA60EB602068286123792B750C486B
:1016C000FEF7B0FF00E000BF094B0E4A1188927888
:1016D00019809A700648FEF7A5FF054B0A4A106864
:1016E00018600348FEF79EFF0C37BD46F0BD00BFF3
:1016F000AC080020D4450008F0450008204600084A
:101700003C460008CC450008D0450008F0B583B041
:1017100000AF0346FB71FB79013B032B6ED801A29E
:1017200052F823F0351700085B17000895170008DA
:10173000C9170008334A344B15461C460FCC2860A5
:101740006960AA60EB6007CC28616961AA6123889F
:10175000AB832C48FEF766FF51E02A4B2B4A144618
:101760009E4604F1200C754626460FCE286069601F
:10177000AA60EB6010340EF1100E6445F3D172468E
:10178000234603CB106051601B7813721D48FEF78F
:1017900049FF34E01B4B1E4A14469E4604F1200CC0
:1017A000754626460FCE28606960AA60EB6010344B
:1017B0000EF1100E6445F3D1724623461B88138048
:1017C0001048FEF72FFF1AE00E4B124A14469E46B1
:1017D00004F1200C754626460FCE28606960AA6089
:1017E000EB6010340EF1100E6445F3D172462346BF
:1017F0001B8813800348FEF715FF00E000BF0C377D
:10180000BD46F0BDAC0800205446000874460008F0
:10181000A0460008C446000880B584B000AF7860D8
:101820000023FB7321E0174BD3F81426FB7B9B00AE
:1018300013441B681846796801F074F80346002BBE
:1018400010D0104B93F81036DBB21A46FB7B0133F5
:101850009A4203DC7B681B782D2B01D0FB7B0CE0CC
:10186000FF230AE0FB7B0133FB73064B93F8103632
:10187000DBB2FA7B9A42D6D3FF235BB2184610370D
:10188000BD4680BDAC09002080B586B000AF786051
:101890000023FB751DE0FB7D134A1B01134403F578
:1018A00084739B683B617B68FB603869F96801F071
:1018B00039F80346BB60BB68002B07D0FB7D1B01DA
:1018C00003F58473084A1344043309E0FB7D0133B4
:1018D000FB75054B93F80C36FA7D9A42DBD3002357
:1018E00018461837BD4680BDAC09002090B583B0BE
:1018F00000AF264B93F80C36254826491A46FFF7C9
:10190000BBFA2348FEF78EFE214A234B11461A46A6
:101910005923084611461A4601F01EFF1C48FEF7DF
:1019200081FE0123FB8024E0FB88184A1B0113443D
:1019300003F584739C68FB88144A11331B0113441C
:101940009B68134815492246FFF796FA1048FEF7A0
:1019500069FE0F4A124B11461A46442308461146A7
:101960001A4601F0F9FE0A48FEF75CFEFB880133D7
:10197000FB80064B93F80C369BB2FA889A42D3D37D
:10198000002318460C37BD4690BD00BFAC090020AF
:10199000AC080020E8460008FC460008584700084C
:1019A0006847000880B400AF00231846BD465DF8C4
:1019B000047B704780B582B000AF0020FFF78EFC3B
:1019C00078600120FFF78AFC0346FB700220FFF7D6
:1019D00085FC0346BB7009494FF000024FF000033D
:1019E000C1E90023FA78BB780548796801F070F8FE
:1019F000002318460837BD4680BD00BF6808002098
:101A0000C80F002080B500AF074A084B03CB106019
:101A100051601B7813720448FEF704FE00F086F84C
:101A20000023184680BD00BFAC080020AC4700086A
:101A300080B582B000AF0020FFF76CFC78607B6857
:101A40003B603A683B681B6805480649FFF714FA93
:101A50000348FEF7E7FD002318460837BD4680BD62
:101A6000AC080020B847000880B582B000AF002065
:101A7000FFF750FC03467B600120FFF74BFC38600A
:101A80007B683A681A60002318460837BD4680BD57
:101A900080B584B000AF0020FFF73CFC0346FB603C
:101AA0000120FFF71BFC78600023BB600FE0FA68A1
:101AB000FB681B680A480B49FFF7DEF90848FEF788
:101AC000B1FDFB680433FB60BB680133BB60BA68DF
:101AD0007B689A42EBD3002318461037BD4680BD81
:101AE000AC080020B8470008B0B584B002AF7860F9
:101AF0007B681B681D467B681B791C467B685B798D
:101B00001A467B68DB8800920193064806492A46FC
:101B10002346FFF7B1F90348FEF784FD0837BD46B9
:101B2000B0BD00BFAC080020CC47000880B584B031
:101B300000AF124BD3E900231046194601F08AF991
:101B4000034618460E4901F07FFA0346184601F095
:101B500017FB0346FB600B4800F094FF0246FB684E
:101B600013443A1D1046194600F03AFF3B1D184633
:101B7000FFF7BAFF1037BD4680BD00BF68080020E0
:101B80000000C842C80F002080B584B000AF786064
:101B90000D20FEF72FFD2C4B2C4A106818602A48A8
:101BA000FEF740FD2A487968502201F0D5FD294B07
:101BB0005022A3F806210023FB730023BB732AE005
:101BC000BB7B244A134493F86130002B0AD1214B8C
:101BD000B3F806311BB2502B04D1BB7B9AB21D4B1C
:101BE000A3F80621BA7B1B4BB3F806311BB29A420D
:101BF00006DBFB7B0133FB732020FEF7FBFC07E0D9
:101C0000BB7B144A134493F861301846FEF7F2FC8C
:101C1000BB7B0133BB73BB7B4F2BD1D90D4BB3F8CF
:101C200006210C4BA3F8042100237B7305E0082058
:101C3000FEF7E0FC7B7B01337B737A7BFB7B9A4274
:101C4000F5D31037BD4680BDAC080020D045000854
:101C50000D0A0020AC09002080B584B000AF034617
:101C6000FB71514BB3F804214F4BB3F8063112B25C
:101C70001BB29A4269D04C4BB3F80631DBB2013348
:101C8000FB730EE0FB7BFA7B013A47490A4492F86A
:101C90006110454A13440A4683F86120FB7B013BEF
:101CA000FB73FA7B404BB3F804311BB29A42E9DC78
:101CB0003D4BB3F804311BB23B4A1344FA7983F825
:101CC0006120394BB3F806319BB29BB201339BB212
:101CD0009AB2354BA3F80621334BB3F804319BB2CB
:101CE0009BB201339BB29AB22F4BA3F804212E4B27
:101CF000B3F806311BB22C4A1344002283F861204A
:101D0000294BB3F804317B732848FFF73DFF0023CC
:101D1000BB7310E00820FEF76DFC234BB3F80431D1
:101D20009BB29BB2013B9BB29AB21F4BA3F804211A
:101D3000BB7B0133BB73BA7B1B4BB3F8063119B2C3
:101D40007B7BCB1A9A42E5DB2BE0FB791846FEF74A
:101D500051FC154BB3F804311BB2134A1344FA7902
:101D600083F86120104BB3F806319BB29BB201336C
:101D70009BB29AB20C4BA3F806210B4BB3F804317B
:101D80009BB29BB201339BB29AB2074BA3F80421DA
:101D9000054BB3F806311BB2034A1344002283F803
:101DA00061201037BD4680BDAC0900200D0A00201F
:101DB00080B582B000AF4E4BB3F804214C4BB3F862
:101DC000063112B21BB29A4267D00820FEF712FC0D
:101DD0002020FEF70FFC0820FEF70CFC444BB3F864
:101DE0000431DBB2013B7B717B79FB710EE0FB7947
:101DF000FA7901323E490A4492F861103C4A134490
:101E00000A4683F86120FB790133FB71FA79384B7C
:101E1000B3F806311BB29A42E9DB354BB3F8043113
:101E20009BB29BB2013B9BB29AB2314BA3F8042107
:101E30002F4BB3F806319BB29BB2013B9BB29AB2D7
:101E40002B4BA3F806212A4BB3F806311BB2284AC4
:101E50001344002283F861202648FFF795FE0023F3
:101E6000BB7110E00820FEF7C5FB214BB3F804312D
:101E70009BB29BB2013B9BB29AB21D4BA3F80421CB
:101E8000BB790133BB71BA79194BB3F8063119B27A
:101E90007B79CB1A9A42E5DB27E00820FEF7AAFB04
:101EA0002020FEF7A7FB0820FEF7A4FB104BB3F899
:101EB00004319BB29BB2013B9BB29AB20C4BA3F88C
:101EC00004210B4BB3F806319BB29BB2013B9BB292
:101ED0009AB2074BA3F80621054BB3F806311BB2A3
:101EE000034A1344002283F861200837BD4680BDB1
:101EF000AC0900200D0A002080B58CB000AF03466D
:101F0000FB71B24B1B78002B05D0FB797E2B02D0E6
:101F1000AE4B00221A70FB1DAD481946FEF754FA6D
:101F2000AC4A07F120031188927819809A70AA4A66
:101F300007F11C031188927819809A70A74A07F15B
:101F400018031188927819809A70A54A07F1140332
:101F50001188927819809A70A24A07F110031188AB
:101F6000927819809A70A04A07F10C031188927830
:101F700019809A7007F12003954819460322FEF74D
:101F80007FFA0346002B02D0F123FB713FE007F1FB
:101F90001C038F4819460322FEF772FA0346002BF2
:101FA00002D0F323FB7132E007F118038848194689
:101FB0000322FEF765FA0346002B02D0F223FB71E1
:101FC00025E007F11403824819460322FEF758FA68
:101FD0000346002B02D0F423FB7118E007F1100335
:101FE0007B4819460322FEF74BFA0346002B02D02A
:101FF000F023FB710BE007F10C037548194603222F
:10200000FEF73EFA0346002B01D0F523FB71704B1F
:10201000B3F806311BB24F2B08DDFB797F2B05D0BF
:10202000FB790D2B02D0FB79F02B01D1012300E0CD
:10203000002387F82F3097F82F3003F0010387F83B
:102040002F30FB792F2B02D9FB79392B14D9FB794F
:10205000602B02D9FB797A2B0ED9FB79402B02D960
:10206000FB795A2B08D9FB79202B05D0FB795F2B04
:1020700002D0FB792D2B01D1012300E0002387F84A
:102080002E3097F82E3003F0010387F82E3097F8A2
:102090002F30002B00F01C81FB79F12B74D0F12B39
:1020A0000BDC7E2B5BD07E2B02DC0D2B10D0FDE0F9
:1020B0007F2B4AD0F02B3AD0F8E0F32B59D0F32BFA
:1020C000C0F29E80F42B6AD0F52B00F0BB80EDE0CF
:1020D0003F4B012283F818263D4BB3F806311BB263
:1020E0003B4A1344002283F86120394BB3F8063190
:1020F0001BB201333D483E491A4601F02DFB3C48D6
:1021000000F036FD00F0D0FD314B0022A3F8042191
:102110002F4B0022A3F806212D4BB3F806311BB23A
:102120002B4A1344002283F861200123D1E0314B74
:1021300001221A70304A314B03CB106051601B886A
:1021400013812D48FEF76EFAC0E0214BB3F804313D
:102150001BB2002B02DDFFF72BFEB7E0B6E01B4BF6
:102160001B78002B01D00323B3E0184B01221A7017
:10217000ACE000F047FDB862BB6A002B03D0B86A40
:10218000FFF702FDA2E0A1E000F068FD78627B6A43
:10219000002B03D0786AFFF7F7FC97E096E00C4B32
:1021A000B3F804311BB2002B0EDD094BB3F8043138
:1021B0009BB29BB2013B9BB29AB2054BA3F80421A0
:1021C0000820FEF717FA81E080E000BF71080020C8
:1021D000AC090020F0470008F4470008F847000861
:1021E000FC4700080048000804480008BC0900201B
:1021F0000D0A002070080020AC080020E447000809
:10220000364BB3F80421354BB3F8063112B21BB28A
:102210009A4216DA314BB3F804311BB22F4A1344F9
:1022200093F861301846FEF7E5F92C4BB3F804310A
:102230009BB29BB201339BB29AB2284BA3F8042104
:1022400044E043E0254BB3F80421244BB3F80631B6
:1022500012B21BB29A4228D0204BB3F80631002BA1
:1022600023D01E4BB3F804319BB29BB201339BB217
:102270009AB21A4BA3F80421184BB3F80421174B58
:10228000B3F8063112B21BB29A420BD1134BB3F81A
:1022900004311BB2013B114A134493F861301846D4
:1022A000FEF7A8F9FFF784FD10E00FE097F82E3055
:1022B000002B0AD0094BB3F806311BB24F2B04DCBC
:1022C000FB791846FFF7C8FCFFE700BF002300E0DA
:1022D000022318463037BD4680BD00BFAC09002040
:1022E00080B487B000AF7860396000237B61002341
:1022F0003B610023FB6000237B6176E07B69012268
:1023000002FA03F33B613B681A683B691340FB60C8
:10231000FA683B699A4265D17B681A687B695B0001
:10232000194603238B40DB431A407B681A607B68A5
:102330001A683B681B7919467B695B0001FA03F355
:102340001A437B681A603B681B79012B03D03B68FA
:102350001B79022B2ED17B689A687B695B0019463A
:1023600003238B40DB431A407B689A607B689A6842
:102370003B685B7919467B695B0001FA03F31A43FA
:102380007B689A607B685A687B699BB21946012317
:102390008B40DB431A407B685A607B685B683A6815
:1023A000927911467A6992B201FA02F292B21A4314
:1023B0007B685A607B68DA687B699BB25B000321AB
:1023C00001FA03F3DB431A407B68DA607B68DA6862
:1023D0003B68DB7919467B695B0001FA03F31A431A
:1023E0007B68DA607B6901337B617B690F2B85D960
:1023F0001C37BD465DF8047B704700BF80B500AF59
:10240000114A114B1B6843F0010313600E4B00226D
:102410009A600D4A0C4B1B6823F0847323F48033BD
:102420001360094B094A5A60074A074B1B6823F49B
:1024300080231360044B0022DA6000F087F8044B1D
:102440004FF000629A6080BD0038024010300024D6
:1024500000ED00E080B487B000AF00233B610023B3
:102460007B610223FB600023BB6002237B60324B55
:102470009B6803F00C033B613B69042B07D0082BDE
:1024800009D0002B3FD12D4B2D4A1A603FE02B4B3A
:102490002C4A1A603BE0284B5B6803F480039B0DD9
:1024A000BB60254B5B6803F03F037B60BB68002B80
:1024B0000DD0244A7B68B2FBF3F21F4B596847F6F4
:1024C000C0730B409B0903FB02F37B610CE01C4AC9
:1024D0007B68B2FBF3F2184B596847F6C0730B40A8
:1024E0009B0903FB02F37B61134B5B6803F44033EE
:1024F0001B0C01335B00FB607A69FB68B2FBF3F3F2
:102500000E4A136003E00D4B0D4A1A6000BF0A4BE0
:102510009B6803F0F0031B090B4AD35CDBB23B6101
:10252000064B1A683B6922FA03F3044A13601C370E
:10253000BD465DF8047B7047003802403C04002033
:102540000024F40040787D014004002080B483B072
:1025500000AF00237B6000233B60354A344B1B688F
:1025600043F480331360324B1B6803F400333B6049
:102570007B6801337B603B68002B03D17B68B3F53C
:10258000A06FF0D12A4B1B6803F40033002B02D05C
:1025900001233B6001E000233B603B68012B42D1FB
:1025A000234A234B1B6C43F080531364214A214B75
:1025B0001B6843F4804313601D4A1D4B9B68936066
:1025C0001B4A1B4B9B6843F400439360184A184B0B
:1025D0009B6843F4A0539360154B174A5A60144A02
:1025E000134B1B6843F08073136000BF104B1B68D4
:1025F00003F00073002BF9D0104B40F205621A6013
:102600000B4A0B4B9B6823F003039360084A084B6B
:102610009B6843F00203936000BF054B9B6803F087
:102620000C03082BF9D10C37BD465DF8047B7047CD
:10263000003802400070004019544007003C02403E
:1026400080B485B000AF78600B4B1B68002B02D1C3
:10265000094B0A4A1A60084B1B68FB60064B1A6854
:102660007B681344044A1360FB6818461437BD4660
:102670005DF8047B704700BF74080020F81200204A
:1026800080B582B002AF094B009309480949012285
:102690000323FEF739FF084B00930848084900223E
:1026A0000423FEF731FFBD4680BD00BF0C48000883
:1026B00008480008C52600082C48000828480008DB
:1026C0002D27000890B587B002AF0123BB6010230F
:1026D0007B600723FB600020FEF700FEF86007F137
:1026E00008030E481946FEF731FE3B1D0C481946FB
:1026F000FEF72CFEBB681A467B681C46FB680093FD
:10270000084809492346FEF7B7FB0648FDF78AFF4C
:10271000002318461437BD4690BD00BF4848000846
:102720004C480008AC0800205048000880B500AFB5
:10273000FEF7B8FB0346002B01D0052300E0F7E7C6
:10274000184680BD80B58CB002AFF860B9607A6081
:10275000F868B96800F0AEF803467B76B86800F018
:102760008DF80346FB827B687A7E1A7000237B62B9
:1027700000233B6100233B620023FB6100237B833A
:1027800036E03B6AFA6813441A787B8BB9680B44CD
:102790001B789A4205D03B6AFA6813441B78002BD9
:1027A00023D13A6A7B6AD31A3B617B685A68FB691A
:1027B0009B0013441A683B69134400221A707B6A19
:1027C00099B27B685A68FB699B0013441A683B699D
:1027D0009BB20093F868002300F028F83B6A0133AD
:1027E0007B62FB690133FB6106E07B8B01337B83FA
:1027F0007A8BFB8A9A42C4D33B6AFA6813441B78EB
:10280000002B00D103E03B6A01333B62B6E7283777
:10281000BD4680BD80B483B000AF78607B68002285
:102820001A700C37BD465DF8047B704780B487B0E2
:1028300000AFF8607A601A460B467B8113463B81F5
:102840000023FB8210E0FA8A3B8913441A467B6816
:102850001344F98A7A890A441146FA680A441278BC
:102860001A70FB8A0133FB82FA8A3B8C9A42EAD3C4
:102870001C37BD465DF8047B704700BF80B485B04F
:1028800000AF78600023FB6005E07B6801337B606C
:10289000FB680133FB607B68002B03D07B681B78EF
:1028A000002BF2D1FB6818461437BD465DF8047B57
:1028B000704700BF80B584B000AF786039600023F6
:1028C000FB730023BB813868FFF7D8FF03463B81C9
:1028D0001AE000237B8110E0FB7B7A6813441A78AE
:1028E0007B8939680B441B789A4203D1BB89013339
:1028F000BB8106E07B8901337B817A893B899A42DF
:10290000EAD3FB7B0133FB73FB7B7A6813441B78B0
:10291000002BDED1BB8901339BB218461037BD4670
:1029200080BD00BF80B485B000AF786039600023FF
:10293000FB810EE0FB897A6813441A78FB893968B9
:102940000B441B789A4201D0002343E0FB890133FA
:10295000FB81FB897A681344002B10D0FB897A68CD
:1029600013441B78002B0AD0FB893A681344002BD0
:1029700005D0FB893A6813441B78002BDAD1FB8918
:102980007A681344002B04D1FB893A681344002B66
:102990001DD1FB893A681344002B04D1FB897A6866
:1029A0001344002B13D1FB897A681344002B10D0F9
:1029B000FB893A681344002B0BD0FB893A68134417
:1029C0001A78FB8979680B441B789A4201D000235E
:1029D00000E0012318461437BD465DF8047B7047BC
:1029E00080B489B000AF786039603A68224BA3FBAD
:1029F00002139B094FF47A7101FB03F3D31A9BB2C4
:102A00007B823B681C4AA2FB03239B09FB61F9699B
:102A10001A4BA3FB01235A0913461B019B1A9B0067
:102A2000CA1AD3B27B74FB69144AA2FB03235B0965
:102A3000BB61B969114BA3FB01235A0913461B0162
:102A40009B1A9B00CA1AD3B23B74FB690C4AA2FBC7
:102A50000323DB0A7B617B69FB607B681A4607F115
:102A60000C0393E8030082E8030078682437BD462E
:102A70005DF8047B704700BFD34D62108988888859
:102A8000C5B3A29180B485B000AF78607B681B6845
:102A90000E4A02FB03F37A68127911464EF6602261
:102AA00002FB01F213447A68527911464FF47A72AC
:102AB00002FB01F213447A68D2881344FB60FB687E
:102AC00018461437BD465DF8047B704780EE36002B
:102AD00080B485B000AFF860B96011461A460B4665
:102AE000FB711346BB71FB68BA681A60FA790F4B29
:102AF000A3FB021359090B461B015B1A9B00D31A57
:102B0000DAB2FB681A71BA79084BA3FB02135909B0
:102B10000B461B015B1A9B00D31ADAB2FB685A7191
:102B20001437BD465DF8047B704700BF89888888EC
:102B300080B582B000AF0D4B002283F8212300F056
:102B4000B3F80023FB710BE0FA79084913469B00A8
:102B500013441B010B4400221A70FB790133FB71F3
:102B6000FB79092BF0D90837BD4680BDD00F002076
:102B700080B582B000AF7860204B93F821335BB210
:102B8000092B1EDC1D4B93F821335AB213469B00D0
:102B900013441B01194A1A447B6811461A465023F4
:102BA000084611461A4600F0D7FD144B93F821331E
:102BB000DBB2DBB20133DBB2DAB2104B83F8212394
:102BC00019E00E480E494FF4347200F0C5FD0B4B6E
:102BD00093F821335BB25A1E13469B0013441B012A
:102BE000064A134418467968502200F0B5FD034B9D
:102BF0000A2283F821230837BD4680BDD00F00206C
:102C00002010002080B400AF134B93F820335AB249
:102C1000114B93F821335BB2013B9A4215DA0E4B0C
:102C200093F82033DBB2DBB20133DBB2DAB20A4B0A
:102C300083F82023084B93F820335AB213469B00A5
:102C400013441B01044A134400E000231846BD4608
:102C50005DF8047B704700BFD00F002080B400AF48
:102C6000104B93F820335BB2002B15DD0D4B93F81E
:102C70002033DBB2DBB2013BDBB2DAB2094B83F8C3
:102C80002023084B93F820335AB213469B00134479
:102C90001B01044A134400E000231846BD465DF8BA
:102CA000047B7047D00F002080B400AF044B93F832
:102CB0002123034B83F82023BD465DF8047B704736
:102CC000D00F002080F0004002E000BF81F0004102
:102CD00042001FBF5FEA410392EA030F7FEA226CC2
:102CE0007FEA236C6AD04FEA1262D2EB1363C1BF52
:102CF000D218414048404140B8BF5B42192B88BFC1
:102D0000704710F0004F40F4000020F07F4018BFE3
:102D1000404211F0004F41F4000121F07F4118BF03
:102D2000494292EA030F3FD0A2F1010241FA03FCAB
:102D300010EB0C00C3F1200301FA03F100F0004393
:102D400002D5494260EB4000B0F5000F13D3B0F15B
:102D5000807F06D340084FEA310102F10102FE2ACA
:102D600051D2B1F1004F40EBC25008BF20F001003A
:102D700040EA03007047490040EB000010F4000FE8
:102D8000A2F10102EDD1B0FA80FCACF1080CB2EB7B
:102D90000C0200FA0CF0AABF00EBC25052421843DA
:102DA000BCBFD0401843704792F0000F81F400017F
:102DB00006BF80F400000132013BB5E74FEA410352
:102DC0007FEA226C18BF7FEA236C21D092EA030FBE
:102DD00004D092F0000F08BF0846704790EA010F38
:102DE0001CBF0020704712F07F4F04D1400028BF65
:102DF00040F00040704712F100723CBF00F5000047
:102E0000704700F0004343F0FE4040F4000070477C
:102E10007FEA226216BF08467FEA23630146420228
:102E200006BF5FEA412390EA010F40F4800070473B
:102E30004FF0000304E000BF10F0004348BF4042E1
:102E40005FEA000C08BF704743F0964301464FF01D
:102E500000001CE050EA010208BF70474FF0000379
:102E60000AE000BF50EA010208BF704711F00043BA
:102E700002D5404261EB41015FEA010C02BF84468A
:102E80000146002043F0B64308BFA3F18053A3F5E9
:102E90000003BCFA8CF2083AA3EBC25310DB01FA30
:102EA00002FC634400FA02FCC2F12002BCF1004FB4
:102EB00020FA02F243EB020008BF20F00100704745
:102EC00002F1200201FA02FCC2F1200250EA4C0099
:102ED00021FA02F243EB020008BF20EADC707047DF
:102EE0004FF0FF0C1CEAD0521EBF1CEAD15392EAED
:102EF0000C0F93EA0C0F6FD01A4480EA010C4002C9
:102F000018BF5FEA41211ED04FF0006343EA501022
:102F100043EA5111A0FB01310CF00040B1F5000F64
:102F20003EBF490041EAD3715B0040EA010062F113
:102F30007F02FD2A1DD8B3F1004F40EBC25008BFFD
:102F400020F00100704790F0000F0CF0004C08BF1B
:102F500049024CEA502040EA51207F3AC2BFD2F1E8
:102F6000FF0340EAC250704740F400004FF00003F6
:102F7000013A5DDC12F1190FDCBF00F00040704730
:102F8000C2F10002410021FA02F1C2F1200200FA6E
:102F900002FC5FEA310040F1000053EA4C0308BF35
:102FA00020EADC70704792F0000F00F0004C02BF86
:102FB000400010F4000F013AF9D040EA0C0093F001
:102FC000000F01F0004C02BF490011F4000F013B5B
:102FD000F9D041EA0C018FE70CEAD15392EA0C0FC9
:102FE00018BF93EA0C0F0AD030F0004C18BF31F034
:102FF000004CD8D180EA010000F00040704790F00A
:10300000000F17BF90F0004F084691F0000F91F0AD
:10301000004F14D092EA0C0F01D142020FD193EA73
:103020000C0F03D14B0218BF084608D180EA0100FB
:1030300000F0004040F0FE4040F40000704740F0D7
:10304000FE4040F4400070474FF0FF0C1CEAD052A5
:103050001EBF1CEAD15392EA0C0F93EA0C0F69D001
:10306000A2EB030280EA010C49024FEA402037D06C
:103070004FF0805343EA111143EA10130CF0004063
:103080008B4238BF5B0042F17D024FF4000C8B4253
:1030900024BF5B1A40EA0C00B3EB510F24BFA3EB33
:1030A000510340EA5C00B3EB910F24BFA3EB910303
:1030B00040EA9C00B3EBD10F24BFA3EBD10340EA5D
:1030C000DC001B0118BF5FEA1C1CE0D1FD2A3FF6A3
:1030D00050AF8B4240EBC25008BF20F00100704758
:1030E0000CF0004C4CEA50207F32C2BFD2F1FF03FB
:1030F00040EAC250704740F400004FF00003013A2C
:1031000037E792F0000F00F0004C02BF400010F4CF
:10311000000F013AF9D040EA0C0093F0000F01F0E3
:10312000004C02BF490011F4000F013BF9D041EA05
:103130000C0195E70CEAD15392EA0C0F08D1420238
:103140007FF47DAF93EA0C0F7FF470AF084676E70B
:1031500093EA0C0F04D14B023FF44CAF08466EE7E4
:1031600030F0004C18BF31F0004CCAD130F00042B2
:103170007FF45CAF31F000437FF43CAF5FE700BF0A
:1031800042000ED2B2F1FE4F0BD34FF09E03B3EBD1
:10319000126209D44FEA002343F0004323FA02F0FD
:1031A00070474FF00000704712F1610F01D14202E9
:1031B00002D14FF0FF3070474FF00000704700BF62
:1031C000024B0146186800F003B800BF3804002025
:1031D0002DE9F04F01F10B05162D83B0064627D9D6
:1031E00035F0070500F1B680A94200F2B38000F087
:1031F0004DFBB5F5FC7F22D2C24FE80807EBC003B8
:10320000DC689C4200F0C8816368E168A56823F02F
:103210000303234430465A68E96042F001028D609E
:103220005A6000F035FB0834204603B0BDE8F08F4B
:10323000102900F28F8000F029FB1025DCE7680AD6
:1032400000F08F80042800F25481A8093830410032
:10325000AC4F07EB8101CC68A14206D10CE0002AFB
:1032600080F28280E468A14206D0636823F0030301
:103270005A1B0F2AF3DD01380130A2493C6901F1E4
:10328000080E744500F07D81636823F003035A1B28
:103290000F2A00F36381002AC1F814E0C1F810E09E
:1032A00073DAB3F5007F80F03981DB0801EBC308E6
:1032B0004FEAA30C4A68D8F80890C4F80890012394
:1032C00003FA0CF31343C4F80C804B60C8F80840B1
:1032D000C9F80C408210012494409C4262D82342D9
:1032E00006D120F003006400234200F10400FAD06C
:1032F00007EBC008C4468146DCF80C309C4507D17A
:1033000041E1002980F25181DB689C4500F03B815E
:103310005A6822F00302511B0F29F2DD1C46D3F834
:103320000CC054F8088F5A1945F0010941F0010505
:10333000C3F804903046C8F80CC0CCF808807A6115
:103340003A61C2F80CE0C2F808E05560515000F054
:103350009FFA69E700240C232046336003B0BDE8E0
:10336000F08F7E213F2073E72344E1685A68A56807
:1033700042F00102E96030468D605A6000F088FA40
:103380000834204603B0BDE8F08F234430465A6825
:1033900042F001025A6000F07BFA0834204603B084
:1033A000BDE8F08FBC68636823F00308454504D886
:1033B000C5EB08030F2B00F38C80534BDFF858A1AB
:1033C0001A68DAF8003001332A4404EB080B00F0E5
:1033D000508102F580520F3222F47F6222F00F02F8
:1033E00011463046019200F055FAB0F1FF3F814698
:1033F000019A00F04781834500F2EE80434B196843
:10340000CB451144196000F04281DAF80000DFF882
:1034100008E101301BBFCBEB090B5944CEF80090FB
:10342000196019F0070100F00781C1F10800C1F52A
:103430008051814408314A44C2F30B02C2EB010AB5
:1034400051463046019300F025FA431C019B00F0E1
:103450002C81C9EB0002524442F001021968C7F8FE
:1034600008905144BC42C9F804201960DFF89CA0C0
:1034700016D0B8F10F0F40F2EE806268A8F10C038D
:1034800023F00703E01802F001024FF0050E1A4383
:103490000F2B6260C0F804E0C0F808E000F2098178
:1034A0001B4BBC681A68914288BF1960194B1A6897
:1034B0009142626888BF196022F003029542A2EB34
:1034C000050301D80F2B04DC304600F0E1F900249D
:1034D000AAE6621943F0010345F001056560304634
:1034E000BA60536000F0D4F90834204603B0BDE858
:1034F000F08F142868D9542800F29780280B6E307A
:103500004100A5E650040020800800208408002027
:103510007C080020780800205C0800205A0A042A51
:1035200055D9142A00F2A7805B324FEA420C07EB10
:103530008C0CDFF8BC81DCF8081061457FD04A684C
:1035400022F00302934202D289688C45F7D1CA68FF
:103550007B68E260A1609460CC60BBE6631942F0D6
:10356000010745F00105656030464B610B61C3F80A
:103570000CE0C3F808E05F609A50083400F088F966
:1035800052E64B68A6E609F1010919F0030F0CF1A8
:10359000080C7FF4B1AE2CE004F108036469A34287
:1035A00008BF02303FF469AE2EE61A441C4651684B
:1035B000DB6854F8085F41F0010151603046EB6070
:1035C0009D6000F065F92FE65B30410040E69A0906
:1035D00038324FEA420CAAE7BC42454B3FF40EAFEB
:1035E0009C68626822F0030268E7D8F8008098457A
:1035F0007CD110F0030FA8F1080300F1FF30F4D1E3
:103600007B6823EA04037B6064009C423FF6CAAEF9
:10361000002C3FF4C7AE234248467FF469AE6400F5
:10362000234200F10400FAD062E6B0F5AA7F18D870
:10363000E80B773041000BE64FF48051FBE6D8F8F9
:10364000043092104FF0010C0CFA02F21343C8F848
:1036500004300A467DE70123C9F804304C460022B5
:103660002CE740F2545398421CD8A80C7C304100FF
:10367000EEE51032B4E6542A23D81A0B6E324FEA24
:10368000420C54E7BC68626822F0030216E7CBF3F1
:103690000B0000287FF4B9AE4244BB6842F001023F
:1036A0005A60FDE6FC217E20D2E501224FF0000A9F
:1036B000D4E604F10801304600F03EFADAF80010D2
:1036C000EEE6B2F5AA7F04D8DA0B77324FEA420C65
:1036D0002DE740F254518A4204D89A0C7C324FEACA
:1036E000420C24E74FF0FC0C7E2220E77B688BE73E
:1036F00050040020032A70B426D940EA01039B0736
:1037000011D004780D78AC4222D10244431C05E06C
:1037100013F8014B11F8015FAC4219D19342F7D174
:10372000002070BC70470C4603461E682568AE42F8
:103730001846214603F1040304F1040404D1043AB9
:10374000032A18462146F0D8002ADAD11046E8E7C5
:10375000601B70BC704700BF844641EA000313F051
:1037600003036DD1403A41D351F8043B40F8043B88
:1037700051F8043B40F8043B51F8043B40F8043B4B
:1037800051F8043B40F8043B51F8043B40F8043B3B
:1037900051F8043B40F8043B51F8043B40F8043B2B
:1037A00051F8043B40F8043B51F8043B40F8043B1B
:1037B00051F8043B40F8043B51F8043B40F8043B0B
:1037C00051F8043B40F8043B51F8043B40F8043BFB
:1037D00051F8043B40F8043B51F8043B40F8043BEB
:1037E00051F8043B40F8043B403ABDD2303211D38B
:1037F00051F8043B40F8043B51F8043B40F8043BCB
:1038000051F8043B40F8043B51F8043B40F8043BBA
:10381000103AEDD20C3205D351F8043B40F8043B8A
:10382000043AF9D2043208D0D2071CBF11F8013B88
:1038300000F8013B01D30B8803806046704700BF4E
:10384000082A13D38B078DD010F003038AD0C3F15D
:103850000403D21ADB071CBF11F8013B00F8013B3F
:1038600080D331F8023B20F8023B7BE7043AD9D3FE
:10387000013A11F8013B00F8013BF9D20B780370D3
:103880004B7843708B78837060467047704700BFF9
:10389000704700BF38B5074C002305460846236033
:1038A000FEF7CEFE431C00D038BD2368002BFBD0B2
:1038B0002B6038BDF412002030B4044C0D46134682
:1038C00001462A46206830BC00F002B838040020C7
:1038D0002DE9F04F704C87B09B4601920491059002
:1038E0000A46D4F800A000E02A46154615F8014B18
:1038F0000AEB04035B7803F0080303F0FF01002BDD
:10390000F2D12D2C00F092802B2C08BF54788C46DD
:1039100008BF951CBBF1000F71D0BBF1100F00F078
:10392000A2805E46F717BCF1000F71D14FF0FF384F
:103930006FF000494046494632463B46CDF80CC040
:1039400000F0D2F9404602923B463246494600F02A
:10395000CBF94FF0000E00220023DDF80CC0DDF89B
:1039600008801BE0303CA3452DDDBEF1FF3F13D0A6
:10397000994208BF904252D38B4208BF82424CD03A
:1039800002FB07FE06FB03EEA2FB0623734412199B
:1039900043EBE4734FF0010E15F8014B0AEB0409F9
:1039A00099F8019019F0040FDCD119F003090AD03D
:1039B000B9F1010F0CBF4FF037094FF05709C9EBB0
:1039C0000404A345D1DCBEF1FF3F34D06046C117EB
:1039D000DCF1000661EB410772407B4012EB0C0208
:1039E0004B410199002953D0BEF1000F1AD1049D1B
:1039F00010461946019B1D6007B0BDE8F08F302CC2
:103A000027D00A2600274FF00A0BBCF1000F8DD0FB
:103A10004FF000084FF000498CE74445B0DD4FF00F
:103A2000FF3EB9E710461946013DE3E7951C54787F
:103A30004FF0010C6EE7BCF1000F19D14FF0FF30D1
:103A40006FF00041059A22231360019B002BEBD1FC
:103A5000D2E72B7803F0DF03582B12D0082600277B
:103A60004FF0080B5FE7302C06D0102600275AE7EE
:103A700000204FF00041E5E72B7803F0DF03582BDF
:103A8000F3D16C781026002702354FF0100B4AE76F
:103A900010461946B0E700BF60080020F8B5234F74
:103AA0000C460646FFF7F2FEBB685D6825F003058D
:103AB000291B01F6EF7121F47F6121F00F01A1F5BF
:103AC0008054B4F5805F07DB30460021FFF7E2FE4B
:103AD000BB682B44984204D03046FFF7D9FE002043
:103AE000F8BD30466142FFF7D5FE01300DD0104BD6
:103AF000BA6819682D1B45F001053046091B556051
:103B00001960FFF7C5FE0120F8BD30460021FFF720
:103B1000C1FEBA68831A0F2BDEDD064C0449246807
:103B200043F00103001B53600860D5E750040020F8
:103B3000840800205C08002000294ED02DE9F041C7
:103B40000C468046FFF7A2FE54F8047C624927F039
:103B50000102A4F10805AB188E6858689E4220F057
:103B600003005AD0FE0758600BD454F8087CED1BB4
:103B700001F1080EAC6874453A4467D0EF68E7601D
:103B8000BC601C186468E4070CD4544F9C68BC42A9
:103B900002447CD0D868E06042F0010384606B602E
:103BA000AA5003E042F001036B60AA50B2F5007F17
:103BB00014D2D20801EBC20348689F68AF6092102C
:103BC000012404FA02F21043EB6048609D60FD603E
:103BD0004046BDE8F041FFF75BBE7047530A042B37
:103BE00047D8930903F13804600001EB80003A499B
:103BF0008368834243D0596821F00301914202D97E
:103C00009B689842F7D1DA68EA60AB6040469560FD
:103C1000DD60BDE8F041FFF73BBEFF07024407D47B
:103C200054F8083CED1A1A44A868EB68C360986021
:103C30002B4B1B6842F001009A4268608D60C7D32D
:103C4000284B40461968FFF729FFC1E71918496852
:103C5000C90709D4D9689B68024442F00100D960C1
:103C60008B606860AA50B3E742F001036B60AA5012
:103C7000AEE7142B14D803F15B046000B5E74A6883
:103C8000A4100120A04002434A601A46BCE742F05B
:103C900001034D610D61EC60AC606B60AA5097E769
:103CA000542B04D8130B03F16E0460009DE7B3F5A9
:103CB000AA7F04D8D30B03F17704600095E740F2A4
:103CC0005450834204D8930C03F17C0460008CE7C9
:103CD000FC207E2489E700BF500400205804002007
:103CE000580800208008002053B94AB9002908BFAD
:103CF00000281CBF4FF0FF314FF0FF3000F03CB800
:103D000082B0EC462DE9005000F01EF8DDF804E02A
:103D100002B00CBC704700BF2DE9F041069C15466F
:103D200006460F46984600F029F805FB01F300FB14
:103D30000838A5FB0023B21A434467EB0303C4E928
:103D40000023BDE8F08100BF2DE9F041069C9046BC
:103D500006460F461D4600F05FF900FB05F5A0FB87
:103D6000082308FB0155B21A2B4467EB0303C4E98F
:103D70000023BDE8F08100BF704700BF00292DE996
:103D8000F043C0F2A6800026002BC0F29C8088463B
:103D900094469E46154604460F46002B3DD18A4266
:103DA00059D9B2FA82F33BB1C3F120029F4020FA05
:103DB00002F29D4017439C40290C220CB7FBF1FEF8
:103DC000A8B201FB1E7742EA074700FB0EF3BB4295
:103DD0000AD97F190EF1FF3280F00581BB4240F213
:103DE0000281AEF1020E2F44FF1AA4B2B7FBF1F329
:103DF00001FB137744EA074700FB03F0B84208D9F8
:103E00007F1903F1FF3280F0F080B84240F2ED807C
:103E1000023B43EA0E43002203E08B420FD900220B
:103E20001346341C18BF012460424FF0000565EBB7
:103E300045015840514000196941BDE8F083B3FA8B
:103E400083F2002A40F086808B4202D3844500F240
:103E5000DB800123E5E712B90123B3FBF2F5B5FAE4
:103E600085F000283BD1781B4FEA154E1FFA85FCE0
:103E70000122B0FBFEF8210C0EFB180741EA0747B0
:103E80000CFB08F3BB4207D97F1908F1FF3102D2BE
:103E9000BB4200F2BD808846FF1AA4B2B7FBFEF316
:103EA0000EFB137744EA07470CFB03FCBC4507D91C
:103EB0007F1903F1FF3102D2BC4500F2A7800B4607
:103EC00043EA0843ADE752426FEA060663EB430359
:103ED0005DE7404261EB41014FF0FF3654E7C0F12E
:103EE000200224FA02F107FA00F385404FEA154E4A
:103EF000D7401943B7FBFEF20B0C0EFB12771FFAEB
:103F000085FC43EA07430CFB02F79F4204FA00F4E6
:103F100007D95B1902F1FF3074D29F4272D9023A7D
:103F20002B44DF1B89B2B7FBFEF80EFB187341EA86
:103F300003430CFB08F79F4208D95B1908F1FF31D6
:103F40005CD29F425AD9A8F102082B44D81B48EAF8
:103F500002428EE7C2F120032CFA03F10EFA02FEB0
:103F600020FA03F741EA0E0E08FA02F028FA03F1EC
:103F70004FEA1E453843B1FBF5F8030C05FB181159
:103F80001FFA8EF743EA014107FB08F38B420CFA54
:103F900002FC09D911EB0E0108F1FF3930D28B4236
:103FA0002ED9A8F102087144C91A80B2B1FBF5F309
:103FB00005FB131140EA014107FB03F78F4208D9C3
:103FC00011EB0E0103F1FF3016D28F4214D9023BE0
:103FD000714443EA0843C91BA3FB0C89494509D333
:103FE00005D000221DE79646FEE6134611E79440F1
:103FF0004445F6D2013BF4E70346EAE78846A5E7E5
:10400000C846D1E702468CE713460AE7023B57E76A
:10401000A8F102082F443FE72DE9F041002B44D1DD
:104020008A42154604464FD9B2FA82F70E464FB17E
:10403000C7F12003B94020FA03F602FA07F50E4350
:1040400000FA07F44FEA154E230CB6FBFEF0AFB2B0
:104050000EFB106143EA014307FB00F1994209D9C5
:104060005B1900F1FF3280F0EC80994240F2E98068
:1040700002382B445A1AA4B2B2FBFEF30EFB1322F1
:1040800044EA024207FB03F7974208D9521903F1A9
:10409000FF3180F0D880974240F2D580023B43EA5E
:1040A000004000263146BDE8F0818B4247D8B3FA84
:1040B00083F6002E48D18B4202D3824200F2CD809B
:1040C00001203146BDE8F08112B90125B5FBF2F5BA
:1040D000B5FA85F8B8F1000F77D14A1B4FEA154EB3
:1040E000AFB20126B2FBFEF0230C0EFB102143EA17
:1040F000014107FB00F38B4207D9491900F1FF3258
:1041000002D28B4200F2BA801046C91AA4B2B1FBA7
:10411000FEF30EFB131144EA014407FB03F7A74229
:1041200008D9641903F1FF3280F08F80A74240F272
:104130008C80023B43EA00403146BDE8F081002616
:1041400030463146BDE8F081C6F1200422FA04F57C
:10415000B3402B4320FA04FC01FA06F721FA04F5D8
:104160004FEA134E4CEA0707B5FBFEF8390C0EFB7D
:1041700018551FFA83FC41EA05450CFB08F1A942DA
:1041800002FA06F204D9ED1808F1FF3467D3A0460D
:104190006D1ABFB2B5FBFEF40EFB145547EA05419C
:1041A0000CFB04FC8C4504D9C91804F1FF355CD321
:1041B0002C4644EA0844CCEB0101A4FB02239942BB
:1041C00048D344D0204600266CE7C8F1200401FA09
:1041D00008F305FA08F520FA04F7E1404FEA154E16
:1041E0001F43B1FBFEF63A0C0EFB16111FFA85FCBD
:1041F00042EA01430CFB06F29A4200FA08F407D99E
:104200005B1906F1FF3137D29A4235D9023E2B4471
:104210009B1ABFB2B3FBFEF00EFB103347EA034319
:104220000CFB00F1994207D95B1900F1FF3221D252
:1042300099421FD902382B445A1A40EA064667466B
:1042400050E7104616E70B4629E7134672E7B040E1
:104250009042B7D2601E002624E7304622E7A942EA
:1042600095D9A8F102081D4492E78C45A0D9023CDB
:1042700019449EE71046DFE70E46C9E70238294495
:1042800043E700BF0D0A2A2A2A2A2A2A2A2A2A2A8A
:104290002A2A2A2A2A2A2A2A2A2A2A2A2A2A2A2A7E
:1042A0002A2A2A2A2A2A2A2A2A2A2A2A2A2A2A2A6E
:1042B0002A2A2A2A2A2A2A2A2A2A00000D0A7C20A7
:1042C00020202020202020202020202020202020EE
:1042D00020202020202020202020202020202020DE
:1042E00020202020202020202020202020202020CE
:1042F000207C00000D0A7C2020202020202020206F
:10430000202020202020202020205465726D696EFE
:10431000616C200076312E34000000002020202027
:1043200020202020202020202020202020207C0051
:104330000D0A7C20202020202020202020207377A0
:10434000207665722E3A2000417567202039203290
:10435000303137002000000032313A31303A353503
:1043600000000000202020202020202020207C0091
:104370000D0A000068656C700000000068656C70D4
:10438000206279207465726D696E616C20636F6D57
:104390006D616E64000000007E0000007265736550
:1043A000742063707500000073657474696D650036
:1043B0007365742063757272656E742074696D65BF
:1043C0000A0D0973657474696D65205B685D205B17
:1043D0006D5D205B735D000067657474696D6500D9
:1043E0007072696E742063757272656E7420746980
:1043F0006D65000063707572000000007265616495
:104400002066726F6D20435055207265670A0D0952
:1044100063707572205B616464725D0A0D090961E5
:10442000646472202D2033322DF0E0E7F0FFE4EDDC
:10443000EEE520E7EDE0F7E5EDE8E520E0E4F0E586
:10444000F1E02C20E8E720EAEEF2EEF0EEE3EE20D9
:10445000F7E8F2E0F2FC00006370757700000000FE
:10446000777269746520696E2043505520726567C4
:104470000A0D0963707577205B616464725D205B6F
:10448000646174615D0A0D090961646472202D2004
:1044900033322DF0E0E7F0FFE4EDEEE520E7EDE06C
:1044A000F7E5EDE8E520E0E4F0E5F1E02C20E8E7D1
:1044B00020EAEEF2EEF0EEE3EE20F7E8F2E0F2FCB6
:1044C0000A0D090964617461202D2033322DF0E05A
:1044D000E7F0FFE4EDEEE520E7EDE0F7E5EDE8E5F8
:1044E00020E7E0EFE8F1FBE2E0E5ECFBF520E4E0BB
:1044F000EDEDFBF5000000006370757262000000D6
:104500007265616420626C6F636B2066726F6D20F0
:104510004350550A0D096370757262205B616464D3
:10452000725D205B6C656E6774685D0A0D090961D8
:10453000646472202D2033322DF0E0E7F0FFE4EDCB
:10454000EEE520E7EDE0F7E5EDE8E520E0E4F0E575
:10455000F1E02C20E8E720EAEEF2EEF0EEE3EE20C8
:10456000EDE0F7E8EDE0F2FC20F7F2E5EDE8E50A32
:104570000D09096C656E677468202D20EAEEEBE882
:10458000F7E5F1F2E2EE20F7E8F2E0E5ECFBF5F515
:1045900020F0E5E3E8F1F2F0EEE200000D0A436FEF
:1045A000756E74206261736520636F6D6D616E64FA
:1045B0003A202564000000000D0A4D617820636FE9
:1045C0006D6D616E643A2025640000000A0D0000E4
:1045D0003E3E20000A0D6572723A20436F6D6D6198
:1045E0006E64206E6F7420666F756E64000000004C
:1045F0000A0D6572723A204661756C7420617267AB
:10460000756D656E74206F72204661756C74206ED6
:10461000756D62657220617267756D656E74730089
:104620000A0D6572723A2045786563757465206677
:10463000756E6374696F6E73000000000A0D6D7310
:10464000673A20436F6D6D616E642061626F7274B2
:10465000000000000A0D61646420636D64206572CF
:10466000723A204D656D6F72792069732066756CA2
:104670006C0000000A0D61646420636D6420657243
:10468000723A2046756E6374696F6E2063616C6C5C
:104690006261636B206973204E554C4C0000000032
:1046A0000A0D61646420636D64206572723A20456E
:1046B0006D707479206E616D6520636F6D6D616ED4
:1046C000640000000A0D61646420636D64206572FB
:1046D000723A205265747279206E616D6520636F45
:1046E0006D6D616E640000000D0A436F756E74207D
:1046F000636F6D6D616E643A202564000D0A5B5D29
:10470000202D20EEE1FFE7E0F2E5EBFCEDFBE920F8
:10471000E0F0E3F3ECE5EDF20D0A3C3E202D20ED58
:10472000E520EEE1FFE7E0F2E5EBFCEDFBE920E060
:10473000F0E3F3ECE5EDF20D0A7C202D20E2FBE145
:10474000EEF020ECE5E6E4F320E0F0E3F3ECE5ED59
:10475000F2E0ECE8000000000D0A0A252D3130736C
:10476000202D2025730000000D0A2D2D2D2D2D2D1F
:104770002D2D2D2D2D2D2D2D2D2D2D2D2D2D2D2D69
:104780002D2D2D2D2D2D2D2D2D2D2D2D2D2D2D2D59
:104790002D2D2D2D2D2D2D2D2D2D2D2D2D2D2D2D49
:1047A0002D2D2D2D2D2D2D2D2D2D2D000D0A546946
:1047B0006D653A20000000000D0A30782530385829
:1047C0003A20307825303858000000000D0A253096
:1047D00032643A253032643A253032642E25303343
:1047E000640000000D0A4B6579204553430000002A
:1047F0001B5B41001B5B42001B5B43001B5B4400D7
:104800001B1B1B001B5B3300743100007431202D17
:10481000206465736372697074696F6E20636F6D75
:104820006D616E6400000000743200007432202D4F
:10483000206465736372697074696F6E20636F6D55
:104840006D616E64000000002D6100002D620000AB
:104850000D0A613A203078253038580D0A623A2026
:104860003078253038580D0A633A2025640000005E
:104870000020202020202020202028282828282030
:104880002020202020202020202020202020202028
:104890002088101010101010101010101010101090
:1048A0001004040404040404040404101010101080
:1048B000101041414141414101010101010101014A
:1048C000010101010101010101010101101010109C
:1048D000101042424242424202020202020202021C
:1048E0000202020202020202020202021010101070
:1048F0002000000000000000000000000000000098
:1049000000000000000000000000000000000000A7
:104910000000000000000000000000000000000097
:104920000000000000000000000000000000000087
:104930000000000000000000000000000000000077
:104940000000000000000000000000000000000067
:104950000000000000000000000000000000000057
:104960000000000000000000000000000000000047
:014970000046
:0849740008F4FF7F01000000C0
:10497C0000000000010203040102030406070809F9
:10498C00000000000000000001000000000000001A
:10499C00000000000000000000000000000000000B
:1049AC0000000000000000000000000000000000FB
:1049BC0000000000000000000000000000000000EB
:1049CC0000000000000000000000000000000000DB
:104DAC00000000000000000010000020007A030A40
:104DBC0000000000000000000102030406070809BF
:104DCC0000000000000000005004002050040020EF
:104DDC0058040020580400206004002060040020C7
:104DEC006804002068040020700400207004002077
:104DFC007804002078040020800400208004002027
:104E0C0088040020880400209004002090040020D6
:104E1C009804002098040020A0040020A004002086
:104E2C00A8040020A8040020B0040020B004002036
:104E3C00B8040020B8040020C0040020C0040020E6
:104E4C00C8040020C8040020D0040020D004002096
:104E5C00D8040020D8040020E0040020E004002046
:104E6C00E8040020E8040020F0040020F0040020F6
:104E7C00F8040020F80400200005002000050020A4
:104E8C000805002008050020100500201005002052
:104E9C001805002018050020200500202005002002
:104EAC0028050020280500203005002030050020B2
:104EBC003805002038050020400500204005002062
:104ECC004805002048050020500500205005002012
:104EDC0058050020580500206005002060050020C2
:104EEC006805002068050020700500207005002072
:104EFC007805002078050020800500208005002022
:104F0C0088050020880500209005002090050020D1
:104F1C009805002098050020A0050020A005002081
:104F2C00A8050020A8050020B0050020B005002031
:104F3C00B8050020B8050020C0050020C0050020E1
:104F4C00C8050020C8050020D0050020D005002091
:104F5C00D8050020D8050020E0050020E005002041
:104F6C00E8050020E8050020F0050020F0050020F1
:104F7C00F8050020F805002000060020000600209F
:104F8C00080600200806002010060020100600204D
:104F9C0018060020180600202006002020060020FD
:104FAC0028060020280600203006002030060020AD
:104FBC00380600203806002040060020400600205D
:104FCC00480600204806002050060020500600200D
:104FDC0058060020580600206006002060060020BD
:104FEC00680600206806002070060020700600206D
:104FFC00780600207806002080060020800600201D
:10500C0088060020880600209006002090060020CC
:10501C009806002098060020A0060020A00600207C
:10502C00A8060020A8060020B0060020B00600202C
:10503C00B8060020B8060020C0060020C0060020DC
:10504C00C8060020C8060020D0060020D00600208C
:10505C00D8060020D8060020E0060020E00600203C
:10506C00E8060020E8060020F0060020F0060020EC
:10507C00F8060020F806002000070020000700209A
:10508C000807002008070020100700201007002048
:10509C0018070020180700202007002020070020F8
:1050AC0028070020280700203007002030070020A8
:1050BC003807002038070020400700204007002058
:1050CC004807002048070020500700205007002008
:1050DC0058070020580700206007002060070020B8
:1050EC006807002068070020700700207007002068
:1050FC007807002078070020800700208007002018
:10510C0088070020880700209007002090070020C7
:10511C009807002098070020A0070020A007002077
:10512C00A8070020A8070020B0070020B007002027
:10513C00B8070020B8070020C0070020C0070020D7
:10514C00C8070020C8070020D0070020D007002087
:10515C00D8070020D8070020E0070020E007002037
:10516C00E8070020E8070020F0070020F0070020E7
:10517C00F8070020F8070020000800200008002095
:10518C000808002008080020100800201008002043
:10519C0018080020180800202008002020080020F3
:1051AC0028080020280800203008002030080020A3
:1051BC003808002038080020400800204008002053
:1051CC00480800204808002000000200FFFFFFFFF5
:0451DC00704800080F
:0400000508000000EF
:00000001FF
