:100000000C942A000C9447000C9447000C94470071
:100010000C9447000C9447000C9447000C94470044
:100020000C9447000C94790D0C9447000C944700F5
:100030000C9447000C9447000C9447000C94470024
:100040000C9447000C9447000C9447000C94470014
:100050000C94470011241FBECFE5D8E0DEBFCDBF12
:1000600016E0A0E6B0E0EAE0F6E302C005900D92EB
:10007000A230B107D9F717E0A2E0B6E001C01D92A7
:10008000A830B107E1F70E946D000C94031B0C949B
:10009000000060E071EE80E090E00E9474000E9439
:1000A000560D84B3836084BB0E94550F0E946B0D74
:1000B0007894089580E090E00E94B8030E94220F97
:1000C000089580E80E94AC00882321F00E94AA00D5
:1000D0000E94D2060E94840608950E9449000E9450
:1000E0005A000E946100FDCF9B01AC0182E081BB00
:1000F00084E0220F331F441F551F8A95D1F760E01B
:1001000074E284EF90E00E94781521503040832FF4
:100110008F7080BD29B988E18AB98EE880BD0895C5
:100120005D9BFECF8CB90895EF92FF92CF93DF9342
:10013000E82EE7017E01F92EE70105C089918823A9
:1001400021F00E9490002097C9F7DF91CF91FF9096
:10015000EF9008958CB108959BB1982321E09813F6
:1001600020E0822F089580E0089588E00E949000AA
:1001700080E20E94900088E00E94900080916406D6
:10018000909165060197909365068093640680912F
:1001900066069091670601979093670680936606BE
:1001A000865E994FFC0110A20895AF92BF92CF9244
:1001B000DF92EF92FF920F931F93CF93DF9300D0C4
:1001C00000D000D0EDB7FEB73196C6E0D6E0ADB7AF
:1001D000BEB71296DC93CE93119780E690E093839E
:1001E000828380918E06848315820E9456188DB773
:1001F0009EB706960FB6F8949EBF0FBE8DBFCE0178
:100200000E949400CE0164E770E00E944F18CE0176
:100210000E94940005E716E081E0E82EF12CDE0153
:10022000DC2ECB2EC4ECD0E03DC08DB79EB7089736
:100230000FB6F8949EBF0FBE8DBFEDB7FEB73196D7
:10024000ADB7BEB71196DC9211971296CC92D383BC
:10025000C283D8018D919C911197958384831596C3
:100260008D919C911697978386830E9456188DB71F
:100270009EB708960FB6F8949EBF0FBE8DBF8D2D0A
:100280009C2D0E9494008D2D9C2D62ED70E00E94AB
:100290004F188D2D9C2D0E9494000894E11CF11C98
:1002A000075F1F4F80918E0690E0E816F90608F46C
:1002B000BCCF80E0DF91CF911F910F91FF90EF9025
:1002C000DF90CF90BF90AF9008958091020610927A
:1002D000020608951F93CF93DF93EC0110E014C042
:1002E000E0919106F0919206212F30E0220F331F0A
:1002F000E20FF31F80819181BE010E94040D8823CB
:1003000011F0812F06C01F5F80919006181740F3EF
:100310008FEFDF91CF911F910895E0919106F091B9
:10032000920690E00196880F991FE80FF91F8081CF
:10033000918160E070E04AE050E00E940417089567
:10034000EF92FF920F931F93DF93CF930F92CDB74E
:10035000DEB780E00E948D017B018C0181E00E946C
:100360008D01262F82E029830E948D01362F8AEF8E
:1003700096E0B801A7012981032F0E94B40A80E00A
:100380000F90CF91DF911F910F91FF90EF90089503
:10039000E0919106F091920690E00196880F991FE6
:1003A000E80FF91F8081918160E070E040E150E04A
:1003B0000E94041708954F925F926F927F928F92DE
:1003C0009F92AF92BF92CF92DF92EF92FF920F93E4
:1003D0001F93CF93DF9380E00E94C8012B013C0163
:1003E00081E00E948D015B016C01EE24FF248701F6
:1003F000C6E0D6E056E1852E51E0952E3AC0F701D1
:10040000EE0FFF1FEE0FFF1FE40DF51D8DB79EB71A
:1004100008970FB6F8949EBF0FBE8DBF2DB73EB79D
:100420002F5F3F4FADB7BEB71296DC93CE931197B7
:10043000D90113969C928E9212971596FC93EE9387
:1004400014978081918117969C938E9316970E94A2
:100450005618EDB7FEB738960FB6F894FEBF0FBE2C
:10046000EDBFCE010E9494000894E11CF11C011D17
:10047000111DEA14FB040C051D0508F280E0DF9154
:10048000CF911F910F91FF90EF90DF90CF90BF9091
:10049000AF909F908F907F906F905F904F90089556
:1004A000EF92FF920F931F9380E00E94C8017B019F
:1004B0008C0181E00E94C801F7016083718382830F
:1004C000938380E01F910F91FF90EF900895CF9359
:1004D000DF9380E00E94C8012DB73EB7285030401E
:1004E0000FB6F8943EBF0FBE2DBFEDB7FEB73196E5
:1004F000C6E0D6E0ADB7BEB71296DC93CE931197A7
:1005000026E131E03383228375836483DB018D919F
:100510009C91978386830E9456182DB73EB7285F1B
:100520003F4F0FB6F8943EBF0FBE2DBFCE010E94C5
:10053000940080E0DF91CF910895CF93DF93EB019A
:100540000E946A011816A4F440919006282F3327C0
:1005500027FD30952F5F3F4F50E02417350744F4B7
:100560000E948D01688379838A839B8381E001C027
:1005700080E0DF91CF910895CF93DF93EB010E944C
:100580006A011816A4F440919006282F332727FDFE
:1005900030952F5F3F4F50E02417350744F40E94F9
:1005A000C801688379838A839B8381E001C080E0EE
:1005B000DF91CF9108950E946A018095881F882756
:1005C000881F0895833079F0843018F4823029F53B
:1005D00005C0843069F0853001F515C086E096E0ED
:1005E00067E271E009C086E096E060E471E004C073
:1005F00086E096E060E771E00E944F1886E096E0A2
:100600000E949400089586E096E069E871E00E94F7
:100610004F1886E096E00E9494000895823079F0A9
:10062000833018F4813029F505C0833069F08430B7
:1006300001F515C086E096E06EE971E009C086E03C
:1006400096E06CEB71E004C086E096E065EE71E048
:100650000E944F1886E096E00E949400089586E07C
:1006600096E067E072E00E944F1886E096E00E94F4
:1006700094000895AF92BF92CF92DF92EF92FF92D3
:100680000F931F93CF93DF93EC017B01B42E69018D
:1006900080918E06843028F081E00E940E0381E074
:1006A0005CC06115710529F482E00E940E0382E0AE
:1006B00054C0CE010E94F20B6115710581059105B0
:1006C00011F0AA241EC083E00E940E0383E045C0FF
:1006D0008A2D90E0FC0173E0EE0FFF1F7A95E1F7A1
:1006E000E80FF91FE459F94F80819181BE010E9402
:1006F000040D882329F084E00E940E0384E02DC0BD
:10070000A39440918E06A41618F3242F30E0C9015B
:1007100063E0880F991F6A95E1F7820F931F865E49
:10072000994FFC01E05BFF4FF182E082FC01EE5A41
:10073000FF4FD183C083FC01EC5AFF4FB082FC0114
:10074000EB5AFF4FD182C082895A9F4FFC0111831F
:1007500000834F5F40938E0680E0DF91CF911F9121
:100760000F91FF90EF90DF90CF90BF90AF900895E2
:10077000FF920F931F93CF93DF93F82E86E096E0BE
:1007800069E272E00E944F1886E096E00E949400B1
:1007900086E096E060E672E00E944F1886E096E000
:1007A0000E94940086E096E067E972E00E944F188C
:1007B00086E096E00E94940086E096E067EB72E0A7
:1007C0000E944F1886E096E00E94940086E096E032
:1007D0006CEB72E00E944F1886E096E00E94940055
:1007E00086E096E060ED72E00E944F1886E096E0A9
:1007F0000E94940086E096E068EE72E00E944F1836
:1008000086E096E00E94940086E096E064EF72E055
:100810000E944F1886E096E00E94940086E096E0E1
:1008200066EF72E00E944F1886E096E00E94940006
:1008300086E096E06FEF72E00E944F1886E096E047
:100840000E94940086E096E060E672E00E944F18F5
:1008500086E096E00E94940086E096E069E272E00D
:100860000E944F1886E096E00E94940086E096E091
:100870006BE073E00E944F1886E096E00E949400BF
:1008800010928E061092650610926406109267060A
:10089000109266061092690610926806109225065C
:1008A0001092390610923A0610924E0610924F0698
:1008B0001092630610928F06109293068AEF96E0CC
:1008C00040E050E0BA0120E000E00E94B40A8EE06F
:1008D00093E065ED70E040E020E030E003E113E0FC
:1008E0000E943A038CE293E063EB70E040E020E08A
:1008F00030E00EE213E00E943A03F0FE16C088E3F7
:1009000093E060EA71E043E020E030E000E413E0CF
:100910000E943A0387E693E062E976E040E020E057
:1009200030E00FE613E00E943A03F1FE21C082E8B6
:1009300093E067E672E041E020E030E007E813E092
:100940000E943A0387EA93E060E572E042E020E02B
:1009500030E00CEA13E00E943A0382ED93E06BED85
:1009600071E042E020E030E008ED13E00E943A033D
:1009700000D000D000D0EDB7FEB73196C6E0D6E08B
:10098000ADB7BEB71296DC93CE93119784E094E096
:100990009383828380918E06848315820E945618E9
:1009A0008DB79EB706960FB6F8949EBF0FBE8DBF4B
:1009B000CE010E94940000D000D000D0EDB7FEB769
:1009C0003196ADB7BEB71296DC93CE9311978DE1F9
:1009D00094E09383828384E090E0958384830E94F3
:1009E00056188DB79EB706960FB6F8949EBF0FBEE9
:1009F0008DBFCE010E949400CE016BE073E00E9497
:100A00004F18CE010E94940088E290E00E94D11518
:100A10009093920680939106C0E0D0E000919106F9
:100A20001091920680E190E00E94D115F801EC0F40
:100A3000FD1F808391832296C832D10579F78AE120
:100A400096E063E070E041E001E010E020E030E09B
:100A50000E94CC0A86E096E06FE274E00E944F1894
:100A600086E096E00E94940086E096E062E374E0FF
:100A70000E944F1886E096E00E949400DF91CF918B
:100A80001F910F91FF900895EF92FF920F931F9384
:100A9000CF93DF938C01FF2418C08F2D90E0EC01E1
:100AA000E3E0CC0FDD1FEA95E1F7C80FD91FFE0187
:100AB000E459F94F80819181B8010E94040D882387
:100AC00019F0C659D94F07C0F39480918E06F816D5
:100AD00020F3C0E0D0E0CE01DF91CF911F910F91C4
:100AE000FF90EF9008950F931F93CF93DF93DC0156
:100AF0008DB79EB70C970FB6F8949EBF0FBE8DBFF3
:100B0000EDB7FEB7319606E016E0CDB7DEB71A8333
:100B1000098386E394E0938382838D919C9111975E
:100B20009583848314968C911497868317821596E7
:100B30008C9115978087118616968D919C911797A9
:100B4000938782870E9456188DB79EB70C960FB672
:100B5000F8949EBF0FBE8DBFC8010E949400DF9124
:100B6000CF911F910F910895DF93CF93CDB7DEB74B
:100B700060970FB6F894DEBF0FBECDBF8AEF96E048
:100B80000E94150A0E94440929873A874B875C878F
:100B90006D877E878F87988BDE011196FE013996CF
:100BA00088E001900D928150E1F7CE0101960E94FC
:100BB000730560960FB6F894DEBF0FBECDBFCF9120
:100BC000DF910895CF92DF92EF92FF920F931F93E0
:100BD000DF93CF93CDB7DEB760970FB6F894DEBF43
:100BE0000FBECDBF6C01E62E662309F44BC0DC01BD
:100BF0008D919C910E9444058C01009709F43FC09F
:100C0000FF24FC01848190E08E159F05DCF581E0D6
:100C100080938F06858180FF02C00E94B405D801B1
:100C2000ED91FC91C601B7010995E82EF801858187
:100C300081FF02C00E94B405D80115968C911597CA
:100C400082FF1AC060E070E0CB010E94440929874E
:100C50003A874B875C876D877E878F87988BDE010D
:100C60001196FE01399688E001900D928150E1F7CE
:100C7000CE0101960E94730510928F0605C0A2E076
:100C8000EA2E02C0F3E0EF2E8E2D60960FB6F89498
:100C9000DEBF0FBECDBFCF91DF911F910F91FF90AF
:100CA000EF90DF90CF9008951F93CF93DF93C0E92B
:100CB000D6E064EF72E0AE010E948B0C8091910649
:100CC00090919206609190060E94E205182FCE0145
:100CD0000E94DB0B812F0E94E202C6E0D6E0CE012B
:100CE0006FE274E00E944F18CE010E949400CE0182
:100CF00062E374E00E944F18CE010E949400812F9D
:100D0000DF91CF911F91089580919306882341F040
:100D100085E296E00E9454061092930681E00895C1
:100D200080E00895CF93DF93C6E0D6E0CE016CE477
:100D300074E00E944F18CE010E9494000E94B405F6
:100D400080E0DF91CF910895DF93CF93CDB7DEB7E9
:100D500060970FB6F894DEBF0FBECDBF8AEF96E066
:100D60000E94150A0E94440929873A874B875C87AD
:100D70006D877E878F87988BDE011196FE013996ED
:100D800088E001900D928150E1F7CE0101960E941A
:100D9000730560960FB6F894DEBF0FBECDBFCF913E
:100DA000DF9108951F93DF93CF93CDB7DEB763979D
:100DB0000FB6F894DEBF0FBECDBF8B8B80910306BC
:100DC000882329F08B898E3711F0109203068AE16F
:100DD00096E0BE016D5E7F4F0E94030BDE0111960F
:100DE000EEE6F4E083E001900D928150E1F7DE0140
:100DF0001496EBE6F4E083E001900D928150E1F768
:100E0000DE011796E8E6F4E083E001900D92815050
:100E1000E1F7DE011A96E5E6F4E083E001900D9239
:100E20008150E1F7DE011D96E2E6F4E083E00190F7
:100E30000D928150E1F7DE015096EFE5F4E083E09A
:100E400001900D928150E1F78AE196E0BE016F5F5B
:100E50007F4F23E030E040E050E00E94B90B882350
:100E600011F081EF4AC08AE196E0BE016C5F7F4FCE
:100E700023E030E040E050E00E94B90B882311F0FD
:100E800083EF3BC08AE196E0BE01695F7F4F23E0BC
:100E900030E040E050E00E94B90B882311F082EF6F
:100EA0002CC08AE196E0BE01665F7F4F23E030E010
:100EB00040E050E00E94B90B882311F084EF1DC080
:100EC0008AE196E0BE01635F7F4F23E030E040E0BF
:100ED00050E00E94B90B882311F080EF0EC08AE128
:100EE00096E0BE01605F7F4F23E030E040E050E0DD
:100EF0000E94B90B882311F085EF8B8B2091660639
:100F0000309167062431310564F08B89883049F0CF
:100F10008D3039F061E070E0803F29F060E070E0F2
:100F200002C061E070E01B89812F80538A3088F015
:100F300081538A3170F0805E8A3158F0103249F066
:100F40001F3539F041E050E01D3229F040E050E01B
:100F500002C041E050E080919306882329F0103FC1
:100F600019F01E3709F0B2C06115710509F4B0C05F
:100F7000103F09F449C0113F48F41D3071F01E378D
:100F800009F458C0183009F07CC04CC0153F08F473
:100F9000A3C0153F09F075C056C021153105A9F44D
:100FA00086E096E06FE274E00E944F1886E096E0DB
:100FB0000E94940086E096E062E374E00E944F187D
:100FC00086E096E00E94940081C081E080939306C1
:100FD000F901E65EF94F10A265E276E02F5F3F4F20
:100FE000AB014B5E5F4FCB01BA01A9010E944618CD
:100FF00010926506109264061092670610926606BB
:1010000010923A0681E069C081E08093020686E092
:1010100096E065E574E00E944F1886E096E00E9435
:1010200094005AC0809164069091650618161906BE
:101030002CF152C080910306882309F04BC081E057
:101040008093030649C080916406909165068217DB
:10105000930709F441C021153105F1F1AC014F5F4F
:101060005F4F50936506409364064217530731F46F
:10107000865E994FFC0180A10E9490000E94B500FD
:101080002BC04115510541F1243131052CF5812F3B
:101090000E9490002091640630916506F901E65E99
:1010A000F94F10A380916606909167060196909380
:1010B0006706809366062F5F3F4F30936506209347
:1010C0006406865E994FFC0110A206C084E005C04C
:1010D00082E003C083E001C080E063960FB6F8941D
:1010E000DEBF0FBECDBFCF91DF911F9108950F934B
:1010F0001F938C01E091F906E530D4F51E1634F506
:10110000FF27E7FDF095319784E190E0E89FB0017B
:10111000E99F700DF89F700D11246C56794FC8012E
:101120000E94040D882309F05CC0E091F90684E177
:10113000E802F0011124EC56F94F802F912FDC01C9
:1011400084E10D9001928150E1F70EC084E1E80244
:10115000F0011124EC56F94F802F912FDC0184E12E
:101160000D9001928150E1F78091F9068F5F37C0B1
:10117000FF27E7FDF095319784E190E0E89FB0010B
:10118000E99F700DF89F700D11246C56794FC801BE
:101190000E94040D882329F5E4E9F6E0DF01549666
:1011A00080E50D9001928150E1F78091F906992731
:1011B00087FD9095019724E130E0829FF001839FA5
:1011C000F00D929FF00D1124EC56F94F802F912FC6
:1011D000DC0184E10D9001928150E1F785E080937C
:1011E000F9061F910F910895853038F424E1829F0C
:1011F000900111242C56394F02C020E030E0C90183
:1012000008952091F806422F552747FD509580916B
:10121000F906992787FD909501974817590754F4C7
:101220002F5F2093F80684E12802900111242C56A8
:10123000394F02C020E030E0C90108952091F8063E
:10124000121654F421502093F80684E128029001EC
:1012500011242C56394F02C020E030E0C901089516
:101260008091F9068093F80608951092F9060E947D
:101270003009109294061092A8061092BC061092A3
:10128000D0061092E40608957F928F929F92AF92BB
:10129000BF92CF92DF92EF92FF920F931F93DF9353
:1012A000CF93CDB7DEB728970FB6F894DEBF0FBE49
:1012B000CDBF28EE33E040E050E00E947815690190
:1012C0007A01162F772ECA01B90120E13EE040E0F5
:1012D00050E00E947815022F29833A834B835C8368
:1012E0008CE3882E912CA12CB12CC701B601A5014D
:1012F00094010E947815C62ECA01B901A501940176
:101300000E947815812F972D98878F83202F3A81FF
:101310004B815C817C2D988528960FB6F894DEBFB2
:101320000FBECDBFCF91DF911F910F91FF90EF9036
:10133000DF90CF90BF90AF909F908F907F90089557
:101340008F929F92AF92BF92DF92EF92FF920F9394
:101350001F93DF93CF93CDB7DEB728970FB6F894DE
:10136000DEBF0FBECDBF7B018C0120E13EE040E03F
:1013700050E00E947815D22E29833A834B835C83F8
:101380009CE3892E912CA12CB12CC801B701A50199
:1013900094010E947815E62ECA01B901A5019401B5
:1013A0000E94781518861F822D2D3A814B815C8111
:1013B0007E2D80E0988528960FB6F894DEBF0FBE8C
:1013C000CDBFCF91DF911F910F91FF90EF90DF90F4
:1013D000BF90AF909F908F9008951F93CF93DF930E
:1013E000EC011D81688179818A819B8120E13EE049
:1013F00040E050E00E944D159B01AC01210F311DD2
:10140000411D511D9C818CE3989FC0011124AA2786
:1014100097FDA095BA2F280F391F4A1F5B1FB901EE
:10142000CA01DF91CF911F910895EF92FF920F9320
:101430001F93CF93DF93EC01EE80FF8000E010E07C
:10144000688179818A819B8120E83EEE46E350E005
:101450000E944D15E60EF71E081F191F6C8170E0E3
:1014600080E090E020E63AEE40E050E00E944D152A
:10147000E60EF71E081F191F4D8150E028EE33E0DD
:10148000429FC001439F900D529F900D1124AA27A7
:1014900097FDA095BA2FE80EF91E0A1F1B1FB70172
:1014A000C801DF91CF911F910F91FF90EF900895A8
:1014B0000F931F93DF93CF93CDB7DEB728970FB667
:1014C000F894DEBF0FBECDBF8C01CB01BA010E94E4
:1014D000A00929833A834B835C836D837E838F834A
:1014E0009887802F912FDC01FE01319688E00190D2
:1014F0000D928150E1F728960FB6F894DEBF0FBE2B
:10150000CDBFCF91DF911F910F9108950F931F933E
:10151000DF93CF93CDB7DEB728970FB6F894DEBF31
:101520000FBECDBF8C01CB01BA010E9444092983B3
:101530003A834B835C836D837E838F839887802F70
:10154000912FDC01FE01319688E001900D928150CF
:10155000E1F728960FB6F894DEBF0FBECDBFCF914E
:10156000DF911F910F9108950F93FC01822F40830B
:101570005183628373833CE3632F0E946C159483D1
:10158000802F0E946C1595830F910895FC01808136
:1015900091810E946B160895AF92BF92CF92DF9215
:1015A000EF92FF920F931F93DF93CF930F92CDB7DC
:1015B000DEB75C016B0178018901842F90E09C010A
:1015C000269FC001279F900D369F900D11244983BF
:1015D0000E94D115F50180839183D382C282158246
:1015E000148249814683E782F086018712870F9033
:1015F000CF91DF911F910F91FF90EF90DF90CF90EF
:10160000BF90AF9008950F931F93CF93DF93EC019A
:101610008B018C819D812A813B818217930780F108
:101620008F8180FF47C0688179814E8150E0C90178
:101630000197849F9001859F300D949F300D112458
:10164000460F571FCB01BA01A9010E9446184E81CF
:10165000242F30E08C819D810197829FB001839F70
:10166000700D929F700D112428813981260F371F2C
:10167000C901B80150E00E9446188A819B8116C0BA
:101680004E81242F30E0289FB001299F700D389F94
:10169000700D112428813981260F371FC901B80127
:1016A00050E00E9446188C819D8101969D838C8319
:1016B00081E001C080E0DF91CF911F910F910895EB
:1016C0001F93CF93DF93EC01CB012C813D8121153A
:1016D0003105A9F14E8138812981632F722F50E0A5
:1016E0000E94461810E01EC0E881F9814E81A42FA7
:1016F000B0E08A9FB0018B9F700D9A9F700D1124EE
:101700006E0F7F1F01968A9F90018B9F300D9A9FCD
:10171000300D11242E0F3F1FCB01B90150E00E9464
:1017200046181F5F2C813D81812F90E0821793071F
:10173000D8F2215030403D832C8381E001C080E00D
:10174000DF91CF911F910895FC0181E04481558183
:10175000228133814217530708F480E0089541E065
:10176000FC01248135812115310509F040E0842FE9
:101770000895FC01DA01C9012481358140E050E07F
:10178000281739074A075B07A0F0268130E0289F19
:10179000A001299F500D389F500D11248081918107
:1017A0000E9439189C0181E02115310519F080E073
:1017B000089580E00895FC01108208950F931F930F
:1017C000FB01DA01E80FF91FA20FB31F80E090E0E0
:1017D00003C021912D93019680179107D0F31F919B
:1017E0000F910895E82FF92F20E030E0A90104C0FF
:1017F0002F5F3F4F4F4F5F4F309719F081918823F4
:10180000B9F7B901CA010895AF92BF92CF92DF92A2
:10181000EF92FF920F931F93CF93DF938C010E945F
:10182000F20B6B01F801EE24FF2407C08191815077
:10183000803230F40894E11CF11CEC14FD04B4F384
:10184000EC14FD0459F481E090E00E94D115A82E1B
:10185000E5017E01F92EE701188224C0C601019737
:10186000F801E80FF91F20E030E007C04191415036
:10187000403228F42F5F3F4F019697FFF7CFCE18E5
:10188000DF08C21AD30AC6010E94D115EC015E011D
:10189000B92EE501C801B701A50120E030E08601BD
:1018A0000E94DE0BCE01DF91CF911F910F91FF902F
:1018B000EF90DF90CF90BF90AF9008950F931F935C
:1018C000CF93DF93EC018B01CB010E94F20B20E060
:1018D00030E0A0E00CC08191B81719F42F5F3F4FA2
:1018E00005C04F5F5F4F46175707A8F3AF5FFE0174
:1018F000EA0FF11DB081BB2331F0802F912FFC0145
:1019000040E050E0F0CF2F5F3F4FC901DF91CF9112
:101910001F910F9108954F925F926F927F928F92D5
:101920009F92AF92BF92CF92DF92EF92FF920F936E
:101930001F93CF93DF93782E692E962E872E6A0100
:101940000E945E0C082F892D982D0E94F20B2B010E
:10195000D6010C93C301A92EB82EEE24FF24C0E0BB
:10196000D0E060E070E0C401E92FF82D80E090E065
:1019700030C0D5012C913191231711F0222341F56C
:10198000C701880F991F8E01061B170BD6011196F0
:10199000ED91FC911297E80FF91F0190F081E02D75
:1019A000E00FF11F10821196ED91FC911297E80F54
:1019B000F91F40815181872D962D20E030E00E9453
:1019C000DE0BBE016F5F7F4F0894E11CF11C04C069
:1019D00001968415950568F2F50181915F018823D0
:1019E00011F02196C0CFDF91CF911F910F91FF9001
:1019F000EF90DF90CF90BF90AF909F908F907F90AF
:101A00006F905F904F900895CF92DF92EF92FF9288
:101A10000F931F93CF93DF936C01EB010E94F20BA6
:101A20007B018C01CE010E94F20BE616F706080737
:101A3000190781F59E01EC2DFD2D80E090E003C09B
:101A4000541741F50196BF01309761F0519155232C
:101A500079F02115310561F0D9014D919D014423A3
:101A600079F706C09E01280F391F2115310591F421
:101A7000C80FD91F209729F481E06115710551F431
:101A80000CC06115710541F081E02881FB01908156
:101A9000291719F080E001C081E0DF91CF911F91FB
:101AA0000F91FF90EF90DF90CF90089580EB87BB70
:101AB0008DB184658DB908958FB908958FB108955A
:101AC0009EB1982321E0981320E0822F0895C49AB4
:101AD0000895C498089524E02EBD89E19CE09DBD41
:101AE0008CBD29BF08952091040630910506C901D7
:101AF00008951F920F920FB60F9211248F939F9308
:101B000089E19CE09DBD8CBD809104069091050605
:101B1000019690930506809304069F918F910F90F4
:101B20000FBE0F901F9018952F923F924F925F9289
:101B30006F927F928F929F92AF92BF92CF92DF92DD
:101B4000EF92FF920F931F93DF93CF9300D000D0BB
:101B5000CDB7DEB781E090E0A0E0B0E089839A8362
:101B6000AB83BC8383E00E94560FA82E80E00E94C6
:101B7000560F00D000D000D0EDB7FEB7319606E08A
:101B800016E0ADB7BEB712961C930E93119721E7DE
:101B9000E22E24E0F22EF382E282848315820E94F8
:101BA0005618EDB7FEB736960FB6F894FEBF0FBEC7
:101BB000EDBFC8010E94940080E860E00E947A0FA7
:101BC00080E00E94560F882E00D000D000D0EDB7E4
:101BD000FEB73196ADB7BEB712961C930E93119710
:101BE00025E834E033832283A48215820E945618AC
:101BF000EDB7FEB736960FB6F894FEBF0FBEEDBF39
:101C0000C8010E94940000D000D000D0EDB7FEB70C
:101C10003196ADB7BEB712961C930E931197F3820F
:101C2000E282848215820E945618EDB7FEB736967E
:101C30000FB6F894FEBF0FBEEDBFC8010E9494001E
:101C400087E994E0BE016F5F7F4F0E949D020E9472
:101C5000730D7C01AA24BB246501702E612E9AE9C4
:101C6000492E94E0592E5EC00E946501882309F038
:101C700065C00E94730D4C01E816F90609F452C0C4
:101C800081E00E94560F082F82E00E94560F382EE6
:101C9000222410E0022913298DB79EB708970FB6AA
:101CA000F8949EBF0FBE8DBFEDB6FEB60894E11C42
:101CB000F11CADB7BEB711967C92119712966C923B
:101CC000F70153824282B80186E0769567958A953E
:101CD000E1F780E090E00E94EB1220E030E040E885
:101CE0005EE30E946F110E949B0FD70115967C93B3
:101CF0006E93149717961C930E9316970E9456187E
:101D0000EDB7FEB738960FB6F894FEBF0FBEEDBF25
:101D1000872D962D0E9494000894A11CB11CC11C13
:101D2000D11C740189819A81AB81BC81A816B90646
:101D3000CA06DB0608F498CF80E001C085E00F906A
:101D40000F900F900F90CF91DF911F910F91FF9007
:101D5000EF90DF90CF90BF90AF909F908F907F904B
:101D60006F905F904F903F902F900895CF92DF92A9
:101D7000EF92FF920F931F93DF93CF9300D000D089
:101D8000CDB7DEB780E00E948D016B017C01198226
:101D90001A821B821C8285EB94E0BE016F5F7F4F2D
:101DA0000E94BC0249815A816B817C812DB73EB76C
:101DB0002A5030400FB6F8943EBF0FBE2DBFEDB78E
:101DC000FEB7319606E016E0ADB7BEB712961C938B
:101DD0000E93119728EB34E033832283D582C4829B
:101DE00077836683518740870E9456182DB73EB788
:101DF000265F3F4F0FB6F8943EBF0FBE2DBFC80100
:101E00000E94940083ED94E00E94DB02882321F07D
:101E1000C80166ED74E003C0C80161EE74E00E9481
:101E20004F18C8010E94940080E00F900F900F900F
:101E30000F90CF91DF911F910F91FF90EF90DF9066
:101E4000CF9008950F931F93CF93DF93C0EFD4E00B
:101E50008DEE94E066EB7EE041E020E030E08E0124
:101E60000E943A0381EF94E064E97DE040E020E0E5
:101E700030E00E943A03DF91CF911F910F910895B6
:101E8000DF93CF9300D0CDB7DEB79A838983898162
:101E90009A819C01215030403A8329830097B9F7F9
:101EA0000F900F90CF91DF9108950895DF93CF9316
:101EB00000D0CDB7DEB719828A830E94670D8A8170
:101EC0000E945C0D80E80E94600D8823D9F380E0B9
:101ED0000E945C0D80E80E94600D8823D9F30E9467
:101EE0005E0D89830E94690D89810F900F90CF91BB
:101EF000DF9108951F93DF93CF930F92CDB7DEB795
:101F0000162F89830E94670D89810E945C0D80E8ED
:101F10000E94600D8823D9F3812F0E945C0D80E818
:101F20000E94600D8823D9F30E94690D0F90CF9114
:101F3000DF911F910895EF92FF920F931F937B0102
:101F40008C0120E030E040E05FE40E94691287FDF0
:101F500011C0C801B70120E030E040E05FE40E941A
:101F60003E110E9499129B01AC012050304040402C
:101F7000504806C0C801B7010E9499129B01AC01EC
:101F8000B901CA011F910F91FF90EF900895A0E051
:101F9000B0E0EDECFFE00C949E15FC01EA018081BD
:101FA000823008F438C1DB019C91923008F430C1D2
:101FB000843059F4943009F02EC1918111968C919E
:101FC0001197981709F021C126C1943009F420C156
:101FD0009230B1F4823009F01EC1CA01AF0128E08D
:101FE000DA010D90AD01DC010D92CD012150C1F758
:101FF000DB0111968C9111979181892389830AC104
:10200000823009F405C1C280D380DB0112966D9045
:102010007C90139724813581468157811496ED90E9
:10202000FD900D911C911797C601861997095C01C7
:1020300097FF04C0AA24BB24A81AB90AB0E2AB16C1
:10204000B1040CF061C0181619066CF5370148018F
:102050000A2C04C096948794779467940A94D2F7D4
:1020600081E090E0A0E0B0E00A2C04C0880F991F46
:10207000AA1FBB1F0A94D2F70197A109B1098E21AB
:102080009F21A023B123EE24FF248701E39400972E
:10209000A105B10519F4EE24FF248701E628F728ED
:1020A000082919293CC00097D1F1CA0CDB1C390161
:1020B0004A010A2C04C096948794779467940A94F2
:1020C000D2F781E090E0A0E0B0E00A2C04C0880FD5
:1020D000991FAA1FBB1F0A94D2F70197A109B10942
:1020E00082239323A423B52321E030E040E050E095
:1020F0000097A105B10519F420E030E0A9012629D7
:102100003729482959290BC06C147D0424F4EE2486
:10211000FF24870104C0630120E030E0A901818130
:10212000FB019181891709F445C0882349F0D80142
:10213000C701821B930BA40BB50B9C01AD0104C01E
:102140002E193F09400B510B57FD04C01982DB8249
:10215000CA820BC081E08983DB82CA825095409598
:10216000309521953F4F4F4F5F4F2C833D834E83DA
:102170005F830DC0880F991FAA1FBB1F8C839D838F
:10218000AE83BF838A819B8101979B838A838C81E5
:102190009D81AE81BF819C01AD0121503040404006
:1021A00050402F3FEFEF3E07EFEF4E07EFE35E07A4
:1021B00008F30BC08983DB82CA822E0D3F1D401FAE
:1021C000511F2C833D834E835F8383E088832C8162
:1021D0003D814E815F8157FF1DC0DA01C9018170C9
:1021E0009070A070B0705695479537952795822BC3
:1021F000932BA42BB52B8C839D83AE83BF838A81C5
:102200009B8101969B838A8305C0E4EFF4E003C0C1
:10221000FB0101C0FE01CF01CDB7DEB7EEE00C94AB
:10222000BA15A0E2B0E0E7E1F1E10C94A6156983EC
:102230007A838B839C832D833E834F83588789E0E9
:10224000E82EF12CEC0EFD1ECE010196B7010E9486
:102250008B148E010F5E1F4FCE010596B8010E94B0
:102260008B14C701B801AE01475E5F4F0E94C70FD4
:102270000E94BD13A096E6E00C94C215A0E2B0E067
:10228000E4E4F1E10C94A61569837A838B839C8343
:102290002D833E834F8358878E01075F1F4FCE01EA
:1022A0000196B8010E948B1491E1E92EF12CEC0EFD
:1022B000FD1ECE010596B7010E948B148A8991E01C
:1022C00089278A8BC801B701AE01475E5F4F0E9424
:1022D000C70F0E94BD13A096E6E00C94C215A0E2C1
:1022E000B0E0E5E7F1E10C949A1569837A838B837A
:1022F0009C832D833E834F835887CE010196BE0178
:10230000675F7F4F0E948B14CE010596BE016F5E02
:102310007F4F0E948B149985923078F089898230A2
:10232000C0F0943019F4823041F4CBC0843019F4F9
:10233000923079F4C6C0923051F481E02A859A89AE
:10234000291709F480E08A87CE010996BCC0823043
:1023500051F481E02A859A89291709F480E08A8B53
:10236000CE014196B0C06D847E848F849888ED88BC
:10237000FE880F89188DE0E2F0E080E090E0DC015B
:10238000AA24BB24650120E030E0A901B3016170FB
:10239000707061157105D1F02E0D3F1D401F511F4A
:1023A00015012601280E391E4A1E5B1E81E090E0B1
:1023B000A0E0B0E02E153F054007510718F080E07F
:1023C00090E0DC01820D931DA41DB51DAA0CBB1C61
:1023D000CC1CDD1C17FF09C061E0262E312C412CDE
:1023E000512CA228B328C428D528319749F0EE0CE7
:1023F000FF1C001F111F9694879477946794C6CF93
:102400006B897C89EB85FC856E0F7F1F6E5F7F4F2C
:102410007C8F6B8F61E0EA857A89E71709F460E0C9
:102420006A8F6B8D7C8D10C0FC01E170F07030976D
:1024300029F056954795379527955068B695A795F5
:10244000979587956F5F7F4FB7FDEECF0CC0880FD4
:10245000991FAA1FBB1F57FD8160220F331F441F06
:10246000551F615070408030E0E09E07E0E0AE070D
:10247000E0E4BE0760F36B8F7C8F6FE7E62EF12CF4
:10248000012D112DE822F9220A231B2360E4E61610
:10249000F1040105110561F487FD0AC0211531051C
:1024A0004105510529F0805C9F4FAF4FBF4F8078A9
:1024B0008D8F9E8FAF8FB8A383E0898FCE01499611
:1024C00002C084EF94E00E94BD13A096E2E10C9458
:1024D000B615A8E1B0E0EFE6F2E10C94A615698329
:1024E0007A838B839C832D833E834F8358878E0111
:1024F000075F1F4FCE010196B8010E948B1481E146
:10250000E82EF12CEC0EFD1ECE010596B7010E94BF
:102510008B148985823040F08989823028F0C80187
:10252000B7010E94F41401C08FEF6896E6E00C94A6
:10253000C215ACE0B0E0EFE9F2E10C94AA156983B2
:102540007A838B839C83CE010196BE016B5F7F4FA4
:102550000E948B148D81823081F1823070F1843041
:1025600021F48E81882369F10AC02F81388537FDD7
:1025700024C06E812F3131053CF0662311F120E03B
:1025800030E040E050E821C08EE190E0821B930BE8
:1025900029853A854B855C8504C0569547953795C6
:1025A00027958A95D2F7662381F05095409530950E
:1025B00021953F4F4F4F5F4F08C020E030E0A90109
:1025C00004C02FEF3FEF4FEF5FE7B901CA012C9630
:1025D000E2E00C94C615A8E0B0E0E1EFF2E10C9463
:1025E000A4157B018C011A82611571058105910585
:1025F00019F482E089835FC083E089838EE1C82E6D
:10260000D12CDC82CB82ED82FE820F831887C80139
:10261000B7010E946313FC013197F7FF3AC0AA2764
:10262000BB27AE1BBF0B21E030E040E050E00A2E9C
:1026300004C0220F331F441F551F0A94D2F72150A4
:102640003040404050402E213F214023512361E043
:1026500070E080E090E0211531054105510519F445
:1026600060E070E0CB0104C016950795F794E794FD
:10267000AA95D2F7E62AF72A082B192BED82FE82BB
:102680000F8318878EE190E08E1B9F0B9C838B83BA
:1026900012C0309781F00E2E04C0EE0CFF1C001FFC
:1026A000111F0A94D2F7ED82FE820F831887CE1A8B
:1026B000DF0ADC82CB82CE0101960E94BD132896F0
:1026C000E8E00C94C015AF92BF92CF92DF92EF92E8
:1026D000FF920F931F937B018C0180E0E81680E04E
:1026E000F80681E0080780E0180758F4EFEFEE16CF
:1026F000F1040105110509F090F480E090E0DC019F
:1027000017C0F0E0EF16F0E0FF06F0E00F07F1E091
:102710001F0750F480E190E0A0E0B0E009C088E03D
:1027200090E0A0E0B0E004C088E190E0A0E0B0E07C
:1027300020E230E040E050E0281B390B4A0B5B0BF5
:102740005701680104C0D694C794B794A7948A959A
:10275000D2F7D601C50184509B4FFC018081281B14
:10276000310941095109C9011F910F91FF90EF9063
:10277000DF90CF90BF90AF900895EF92FF920F93AC
:102780001F93CF93DF93FC012481358146815781CC
:1027900061818081823020F44061EFEFF0E0A3C0DE
:1027A000843009F49BC0823009F492C021153105B0
:1027B0004105510509F48FC00280F381E02D8FEFB0
:1027C000E238F8070CF05AC0C2E8DFEFCE1BDF0B8F
:1027D000CA31D1056CF579018A010C2E04C0169519
:1027E0000795F794E7940A94D2F781E090E0A0E08F
:1027F000B0E00C2E04C0880F991FAA1FBB1F0A94BB
:10280000D2F70197A109B10982239323A423B52309
:1028100021E030E040E050E00097A105B10519F457
:1028200020E030E0A9012E293F29402B512B03C085
:1028300020E030E0A901DA01C9018F779070A07023
:10284000B07080349105A105B10539F427FF09C0A6
:10285000205C3F4F4F4F5F4F04C0215C3F4F4F4FB5
:102860005F4FE1E0F0E0203080E0380780E048078B
:1028700080E4580728F5E0E0F0E022C0E038F105F8
:102880006CF5E158FF4FDA01C9018F779070A070A5
:10289000B07080349105A105B10539F427FF09C056
:1028A000205C3F4F4F4F5F4F04C0215C3F4F4F4F65
:1028B0005F4F57FF05C05695479537952795319639
:1028C00087E056954795379527958A95D1F70BC0A0
:1028D000E0E0F0E005C0E0E0F0E005C0EFEFF0E0A0
:1028E00020E030E0A9018E2F879588278795942FC7
:1028F0009F77679566276795E695E22EA92FA82B07
:10290000FE2FF62B622F732F8A2F9F2FCDB7DEB7A6
:10291000E6E00C94C215DC01FB012C9111963C9170
:10292000119712968C911297482F4F7750E0982F5D
:10293000991F9927991F13966C911397862F880FCB
:10294000892B90E0661F6627661F6183009739F523
:10295000211531054105510511F482E029C082E8B5
:102960009FEF9383828367E0220F331F441F551F1D
:102970006A95D1F783E0808309C0220F331F441F7B
:10298000551F82819381019793838283203080E059
:10299000380780E0480780E4580778F320C08F3F6D
:1029A000910579F4211531054105510519F484E0AB
:1029B0008083089544FF03C081E0808310C01082AB
:1029C0000EC08F5790409383828383E0808387E09B
:1029D000220F331F441F551F8A95D1F7506424835B
:1029E0003583468357830895FC01DB019081923043
:1029F00008F449C08C91823008F445C0943051F4F9
:102A000061818430B1F511962C91119730E0261B2D
:102A1000310941C0843021F0923041F48230B1F16B
:102A200011968C9111978823A1F12DC0618182307C
:102A300001F111968C9111976817D9F42281338195
:102A400012968D919C9113978217930794F02817F3
:102A50003907BCF0248135814681578114968D91C8
:102A60009D910D90BC91A02D82179307A407B507E7
:102A700018F4662341F00DC0281739074A075B0791
:102A800028F4662331F021E030E005C020E030E09A
:102A900002C02FEF3FEFC9010895629FD001739FDD
:102AA000F001829FE00DF11D649FE00DF11D929FEA
:102AB000F00D839FF00D749FF00D659FF00D992729
:102AC000729FB00DE11DF91F639FB00DE11DF91F4D
:102AD000BD01CF0111240895991B79E004C0991F0D
:102AE000961708F0961B881F7A95C9F78095089568
:102AF000A1E21A2EAA1BBB1BFD010DC0AA1FBB1F02
:102B0000EE1FFF1FA217B307E407F50720F0A21B73
:102B1000B30BE40BF50B661F771F881F991F1A94E0
:102B200069F760957095809590959B01AC01BD010A
:102B3000CF0108952F923F924F925F926F927F92B2
:102B40008F929F92AF92BF92CF92DF92EF92FF92BD
:102B50000F931F93CF93DF93CDB7DEB7CA1BDB0B69
:102B60000FB6F894DEBF0FBECDBF09942A8839880E
:102B700048885F846E847D848C849B84AA84B98415
:102B8000C884DF80EE80FD800C811B81AA81B98121
:102B9000CE0FD11D0FB6F894DEBF0FBECDBFED0135
:102BA0000895CF93DF938230910510F482E090E096
:102BB000E0910407F091050740E050E020E030E0AC
:102BC00026C06081718168177907E0F0681779077E
:102BD00081F4828193812115310531F0D901139659
:102BE0009C938E9312972BC09093050780930407B4
:102BF00026C04115510519F06417750718F4AB018B
:102C0000E901DF019F0172816381E72FF62F309781
:102C1000C1F64115510501F1481B590B44305105CE
:102C200080F412968D919C911397209719F09B83B5
:102C30008A8304C09093050780930407FD013296B0
:102C400046C0FD01E40FF51F81939193425050401F
:102C500011965C934E933BC020910207309103077D
:102C60002115310541F42091FE053091FF05309387
:102C700003072093020720910006309101062115D9
:102C8000310541F42DB73EB74091FC055091FD054B
:102C9000241B350BE0910207F0910307E217F307BD
:102CA000A0F42E1B3F0B2817390778F0AC014E5FBC
:102CB0005F4F2417350748F04E0F5F1F50930307EF
:102CC000409302078193919302C0E0E0F0E0CF01CE
:102CD000DF91CF910895CF93DF93009709F491C0CE
:102CE000FC013297138212826091040770910507EC
:102CF0006115710581F420813181280F391F809180
:102D00000207909103078217930799F5F093030741
:102D1000E093020776C0DB0180E090E002C0CD01C5
:102D2000D901AE17BF0748F412962D913C91139725
:102D300021153105A1F7CD0121C0B383A283EF0195
:102D4000499159919E01240F351FA217B30779F4B9
:102D50002D913C911197240F351F2E5F3F4F3183EA
:102D6000208312962D913C911397338322830097F1
:102D700029F4F0930507E093040743C0DC011396A0
:102D8000FC93EE9312974D915D91A40FB51FEA1736
:102D9000FB0769F420813181240F351F2E5F3F4FDF
:102DA000EC0139832883228133813B832A83E0E04D
:102DB000F0E002C0FB01BC01DB0112968D919C91F9
:102DC00013970097B9F79B012E5F3F4F8D919C9110
:102DD0001197820F931F40910207509103074817E4
:102DE000590779F4309729F41092050710920407D7
:102DF00002C0138212822250304030930307209386
:102E00000207DF91CF9108952F923F924F925F92E8
:102E10007F928F929F92AF92BF92CF92DF92EF926A
:102E2000FF920F931F93CF93DF934B01EA0161153C
:102E3000710519F0FB0180839183209739F09E0181
:102E4000225030402332310508F0F4C0A82EB92EAC
:102E5000F50111915F017F01812F90E00E943118EF
:102E60000097B1F71D3229F4F50111917F0101E0BE
:102E700006C01B3219F4F50111917F0100E0209783
:102E800019F0C031D105B9F4103381F4F701808114
:102E9000883711F0883551F4F701118182E090E014
:102EA000E80EF91E0260C0E1D0E005C0209719F4D9
:102EB0001033C1F422C0C830D105F9F0C930D105B2
:102EC00024F4C230D10509F507C0CA30D10551F04C
:102ED000C031D105D1F427C0A12CB12CC12CF0E414
:102EE000DF2E26C0CAE0D0E0ECECAE2EECECBE2E1D
:102EF000ECECCE2EECE0DE2E1BC0C8E0D0E0A12C26
:102F0000B12CC12C70E1D72E13C09E01442737FD90
:102F10004095542F60E070E080E090E80E947815C2
:102F200059016A0105C0A12CB12CC12C68E0D62E34
:102F300040E060E070E0CB011E01442437FC409487
:102F4000542C50ED752E710EE72DEA3070F0212FC4
:102F500021542A3118F439EC732E06C0212F215642
:102F60002A3130F529EA722E710E272D30E02C1708
:102F70003D07F4F447FD18C0A616B706C806D906E3
:102F800080F0A20191010E944D15670D711D811DF8
:102F9000911D6130F0E07F07F0E08F07F0E89F07B8
:102FA00010F04FEF01C041E0F70111917F01C9CF4F
:102FB0008114910491F0442339F00894E108F10858
:102FC000F401F182E08209C001FF1BC09701225089
:102FD0003040F4013183208314C047FF12C000FF4A
:102FE00005C060E070E080E090E804C06FEF7FEF24
:102FF0008FEF9FE722E230E0309307072093060728
:1030000016C000FF08C090958095709561957F4F20
:103010008F4F9F4F0CC097FF0AC082E290E09093C1
:103020000707809306076FEF7FEF8FEF9FE79B0106
:10303000AC0103C020E030E0A901B901CA01DF9171
:10304000CF911F910F91FF90EF90DF90CF90BF90A5
:10305000AF909F908F907F905F904F903F902F9078
:10306000089591112DC2803219F089508550D0F702
:103070000895FB01DC0104C08D910190801921F4B9
:1030800041505040C8F7881B990B0895FB01DC01A3
:1030900002C001900D9241505040D8F70895FB01B5
:1030A000DC0101900D920020E1F70895AEE0B0E060
:1030B000ECE5F8E10C94A8150D891E8986E08C8357
:1030C0001A8309838FEF9FE79E838D839E01275E7E
:1030D0003F4FCE0101966F89788DA9010E94791822
:1030E000EF81F885E00FF11F10822E96E4E00C943A
:1030F000C415ACE0B0E0EFE7F8E10C949A156C0170
:103100001B018A01FC0117821682838181FFD1C1D4
:103110002E010894411C511CF6019381F10193FD8D
:10312000859193FF81911F01882309F4BEC18532E7
:1031300039F493FD859193FF81911F01853229F424
:1031400090E0B6010E94791AE7CFEE24FF2420E038
:103150002032B0F48B3269F08C3228F4803251F096
:10316000833271F40BC08D3239F0803349F4216021
:103170002CC02260246029C0286027C0206125C09F
:1031800027FD2CC0382F30533A3098F426FF08C062
:103190008E2D880FE82EEE0CEE0CE80EE30E15C017
:1031A0008F2D880FF82EFF0CFF0CF80EF30E206207
:1031B0000CC08E3221F426FD78C1206406C08C3606
:1031C00011F4206802C0883649F4F10193FD85911D
:1031D00093FF81911F01882309F0BACF982F95544E
:1031E000933018F09052933028F40C5F1F4FFFE398
:1031F000F9830DC0833631F0833771F0833509F0E0
:1032000060C022C0F801808189830E5F1F4F420198
:1032100071E0A72EB12C16C062E0662E712C600EF4
:10322000711EF8018080918026FF03C06E2D70E032
:1032300002C06FEF7FEFC4012C870E946E1A5C0101
:1032400083012C852F7717C052E0652E712C600EFC
:10325000711EF8018080918026FF03C06E2D70E002
:1032600002C06FEF7FEFC4012C870E94631A5C01DC
:103270002C852068830123FD20C008C080E290E0F7
:10328000B6012C870E94791AFA942C858F2D90E034
:10329000A816B90698F311C0F40127FD859127FF00
:1032A00081914F0190E0B6012C870E94791A2C85FC
:1032B000F110FA940894A108B108A114B10461F7BF
:1032C000F1C0843611F0893649F527FF08C0F801AE
:1032D00060817181828193810C5F1F4F09C0F80169
:1032E00060817181882777FD8095982F0E5F1F4F31
:1032F0004FE6B42EB22297FF09C090958095709545
:1033000061957F4F8F4F9F4FF0E8BF2AA2012AE0BF
:1033100030E00E94A51A782E741845C0853731F424
:103320003FEEB32EB2222AE030E025C099EFB92E4D
:10333000B2228F36C1F0803720F4883509F0B5C04D
:103340000DC0803721F0883709F0AFC002C020E1FE
:10335000B22AB4FE0BC084E0B82A08C0B4FE09C08B
:10336000E6E0BE2A06C028E030E005C020E130E0FB
:1033700002C020E132E0B7FE08C0F801608171812F
:10338000828193810C5F1F4F07C0F80160817181BA
:1033900080E090E00E5F1F4FA2010E94A51A782ED8
:1033A0007418FFE7BF22B6FE0BC02EEFB2227E14C8
:1033B00038F4B4FE07C0B2FC05C08FEEB82202C0DC
:1033C000A72C01C0AE2C8B2D90E0B4FE0DC0FE01E9
:1033D000E70DF11D2081203319F4E9EEBE2209C06A
:1033E000A394B2FE06C004C086789070009709F0DE
:1033F000A3948B2C9924B3FC14C0B0FE0FC0AF145F
:1034000028F4E72CEF0CEA18AF2C08C0E72C06C014
:1034100080E290E0B6010E94791AA394AF14C0F341
:1034200004C0AF1410F4FA1801C0FF2484FE0FC0CA
:1034300080E390E0B6010E94791A82FE1FC081FEEF
:1034400003C088E590E010C088E790E00DC0C4019B
:1034500086789070009791F081FC02C080E201C0F4
:103460008BE2B7FC8DE290E0B6010E94791A06C0AB
:1034700080E390E0B6010E94791AEA947E14C0F3CA
:103480007A94F201E70DF11D808190E0B6010E946F
:10349000791A7720A9F706C080E290E0B6010E9471
:1034A000791AFA94FF20C1F737CEF60126813781C9
:1034B00002C02FEF3FEFC9012C96E2E10C94B61544
:1034C000992788270895FC010590615070400110EC
:1034D000D8F7809590958E0F9F1F0895FC0161503D
:1034E000704001900110D8F7809590958E0F9F1F26
:1034F00008950F931F93CF93DF938C01EB018B8182
:1035000081FF1BC082FF0DC02E813F818C819D8178
:103510002817390764F4E881F9810193F983E88376
:1035200006C0E885F985802F0995009731F48E81D2
:103530009F8101969F838E8302C00FEF1FEFC8010A
:10354000DF91CF911F910F910895FA01AA2728309A
:1035500051F1203181F1E8946F936E7F6E5F7F4F60
:103560008F4F9F4FAF4FB1E03ED0B4E03CD0670FDC
:10357000781F891F9A1FA11D680F791F8A1F911D2F
:10358000A11D6A0F711D811D911DA11D20D009F47F
:1035900068943F912AE0269F11243019305D3193C1
:1035A000DEF6CF010895462F4770405D4193B3E0AA
:1035B0000FD0C9F7F6CF462F4F70405D4A3318F051
:1035C000495D31FD4052419302D0A9F7EACFB4E002
:1035D000A6959795879577956795BA95C9F70097BA
:1035E0006105710508959B01AC010A2E069457955B
:1035F000479537952795BA95C9F7620F731F841FB2
:0A360000951FA01D0895F894FFCF58
:10360A000D0A436F756E7420636F6D6D616E643A57
:10361A00202564000D0A5B5D202D206D616E6461BA
:10362A00746F727920617267756D656E740D0A3CEC
:10363A003E202D206F7074696F6E616C2061726715
:10364A00756D656E740D0A7C202D2063686F696341
:10365A0065206265747765656E20617267756D6550
:10366A006E7473000D0A0A252D313073202D202522
:10367A0073000D0A2D2D2D2D2D2D2D2D2D2D2D2D9A
:10368A002D2D2D2D2D2D2D2D2D2D2D2D2D2D2D2D60
:10369A002D2D2D2D2D2D2D2D2D2D2D2D2D2D2D2D50
:1036AA002D2D2D2D2D2D2D2D2D2D2D2D2D2D2D2D40
:1036BA002D2D2D2D2D000D0A3078253038583A2021
:1036CA00307825303858000A0D6572723A20436FF7
:1036DA006D6D616E64206E6F7420666F756E640026
:1036EA000A0D6572723A204661756C7420617267C0
:1036FA00756D656E74206F72204661756C74206EEC
:10370A00756D62657220617267756D656E7473009E
:10371A000A0D6572723A204578656375746520668C
:10372A00756E6374696F6E73000A0D6D73673A2064
:10373A00436F6D6D616E642061626F7274000A0D71
:10374A0061646420636D64206572723A204D656D10
:10375A006F72792069732066756C6C000A0D61645A
:10376A006420636D64206572723A2046756E6374D4
:10377A00696F6E2063616C6C6261636B2069732090
:10378A004E554C4C000A0D61646420636D642065DB
:10379A0072723A20456D707479206E616D6520638E
:1037AA006F6D6D616E64000A0D61646420636D64FF
:1037BA00206572723A205265747279206E616D6565
:1037CA0020636F6D6D616E64000D0A2A2A2A2A2A07
:1037DA002A2A2A2A2A2A2A2A2A2A2A2A2A2A2A2A3F
:1037EA002A2A2A2A2A2A2A2A2A2A2A2A2A2A2A2A2F
:1037FA002A2A2A2A2A2A2A2A2A2A2A2A2A2A2A0049
:10380A000D0A7C202020202020202020202020207B
:10381A00202020202020202020202020202020209E
:10382A00202020202020202020202020202020208E
:10383A0020202020207C000D0A7C2020202020200F
:10384A0020202020202020202020202020546572A3
:10385A006D696E616C200076312E340020202020A4
:10386A0020202020202020202020202020207C0012
:10387A000D0A7C2020202020202020202020737761
:10388A00207665722E3A2000417567203138203241
:10389A0030313700200031363A30303A33350020A3
:1038AA002020202020202020207C000D0A0068658E
:1038BA006C700068656C70206279207465726D693D
:1038CA006E616C20636F6D6D616E64007E0072655F
:1038DA00736574206370750073657474696D65002F
:1038EA007365742063757272656E742074696D6590
:1038FA000A0D0973657474696D65205B685D205BE8
:10390A006D5D205B735D0067657474696D65007039
:10391A0072696E742063757272656E742074696D53
:10392A0065006370757200726561642066726F6DFE
:10393A0020435055207265670A0D0963707572201D
:10394A005B616464725D0063707577007772697495
:10395A006520696E20435055207265670A0D096318
:10396A00707577205B616464725D205B6461746169
:10397A005D006370757262007265616420626C6FCB
:10398A00636B2066726F6D204350550A0D09637090
:10399A00757262205B616464725D205B6C656E6740
:1039AA0074685D000D0A436F756E742062617365F9
:1039BA0020636F6D6D616E643A202564000D0A4DB7
:1039CA00617820636F6D6D616E643A202564000A28
:1039DA000D003E3E20000D0A253032643A25303271
:1039EA00643A253032642E25303364000D0A546956
:1039FA006D653A20000D0A4B657920455343001B3B
:103A0A005B331B1B1B1B5B441B5B431B5B421B5B2C
:103A1A00410D0A54656D70204354524C3A20307857
:103A2A0025303258000D0A54656D702049443A20F9
:103A3A00307825303258002D63000D0A54656D70B8
:103A4A00657261747572653A20256420283078257C
:103A5A0030345829002D68000D0A4465633A202540
:103A6A00640D0A4865783A20307825303458253074
:103A7A003458002D66000D0A2D663A2054525545D9
:103A8A00000D0A2D663A2046414C53450074310018
:103A9A000074320000000000000000000001020271
:103AAA0003030303040404040404040405050505CC
:103ABA0005050505050505050505050506060606A8
:103ACA00060606060606060606060606060606068C
:103ADA000606060606060606060606060707070778
:103AEA00070707070707070707070707070707075C
:103AFA00070707070707070707070707070707074C
:103B0A00070707070707070707070707070707073B
:103B1A000707070707070707070707070808080827
:103B2A00080808080808080808080808080808080B
:103B3A0008080808080808080808080808080808FB
:103B4A0008080808080808080808080808080808EB
:103B5A0008080808080808080808080808080808DB
:103B6A0008080808080808080808080808080808CB
:103B7A0008080808080808080808080808080808BB
:103B8A0008080808080808080808080808080808AB
:103B9A00080808080808080808080808200008078C
:023BAA00000019
:00000001FF
