:100000000C942A000C9447000C9447000C94470071
:100010000C9447000C9447000C9447000C94470044
:100020000C9447000C9447000C9447000C94470034
:100030000C9447000C9447000C9447000C94470024
:100040000C9447000C9447000C9447000C94470014
:100050000C94470011241FBECFE5D8E0DEBFCDBF12
:1000600014E0A0E6B0E0E4EBF6E202C005900D92E9
:10007000A43BB107D9F716E0A4EBB4E001C01D9290
:10008000A23AB107E1F70E94B5000C9458130C9402
:100090000000CF92DF92EF92FF920F931F93DF93B6
:1000A000CF9300D000D0CDB7DEB780E00E94CE0164
:1000B0006B017C0119821A821B821C8280E690E00F
:1000C000BE016F5F7F4F0E946A0549815A816B8133
:1000D0007C812DB73EB72A5030400FB6F8943EBF12
:1000E0000FBE2DBFEDB7FEB7319606EB14E0ADB7EE
:1000F000BEB712961C930E93119723E630E033831C
:100100002283D582C48277836683518740870E9489
:1001100074102DB73EB7265F3F4F0FB6F8943EBF21
:100120000FBE2DBFC8010E94F8008EE790E00E942C
:100130006305882321F0C80161E870E003C0C801AD
:100140006CE870E00E946D10C8010E94F80080E029
:100150000F900F900F900F90CF91DF911F910F9103
:10016000FF90EF90DF90CF9008950F931F9360E082
:1001700071EE80E090E00E94D80080E090E00E9464
:10018000B40388E990E069E470E041E020E030E009
:100190000BE910E00E94360380E80E9410018823DA
:1001A00021F00E940E010E941E070E94D006F4CF8B
:1001B0009B01AC0182E081BB84E0220F331F441F0E
:1001C000551F8A95D1F760E074E284EF90E00E94B9
:1001D000CD0D21503040832F8F7080BD29B988E12B
:1001E0008AB98EE880BD08955D9BFECF8CB90895D5
:1001F000EF92FF92CF93DF93E82EE7017E01F92E75
:10020000E70105C08991882321F00E94F40020971E
:10021000C9F7DF91CF91FF90EF9008958CB10895C9
:100220009BB1982321E0981320E0822F089580E06D
:10023000089588E00E94F40080E20E94F40088E0C3
:100240000E94F40080916405909165050197909358
:100250006505809364058091660590916705019717
:10026000909367058093660582529B4FFC0114AA08
:100270000895AF92BF92CF92DF92EF92FF920F93C9
:100280001F93CF93DF9300D000D000D0EDB7FEB71F
:100290003196C6EBD4E0ADB7BEB71296DC93CE93E1
:1002A00011978CE990E0938382838091C4058483C5
:1002B00015820E9474108DB79EB706960FB6F894FB
:1002C0009EBF0FBE8DBFCE010E94F800CE0160EB35
:1002D00070E00E946D10CE010E94F80005E715E065
:1002E00081E0E82EF12CDE01DC2ECB2EC0E0D1E047
:1002F0003DC08DB79EB708970FB6F8949EBF0FBE4E
:100300008DBFEDB7FEB73196ADB7BEB71196DC9293
:1003100011971296CC92D383C283D8018D919C9170
:1003200011979583848315968D919C911697978349
:1003300086830E9474108DB79EB708960FB6F89406
:100340009EBF0FBE8DBF8D2D9C2D0E94F8008D2D60
:100350009C2D6EE071E00E946D108D2D9C2D0E94F1
:10036000F8000894E11CF11C075F1F4F8091C40541
:1003700090E0E816F90608F4BCCF80E0DF91CF9159
:100380001F910F91FF90EF90DF90CF90BF90AF90B3
:1003900008958091B4041092B4040895E091C705C3
:1003A000F091C80590E00196880F991FE80FF91F9A
:1003B0008081918160E070E04AE050E00E94220F6D
:1003C0000895EF92FF920F931F93DF93CF930F92B5
:1003D000CDB7DEB780E00E94CE017B018C0181E0C9
:1003E0000E94CE01262F82E029830E94CE01362F63
:1003F00084E996E0B801A7012981032F0E94000B30
:1004000080E00F90CF91DF911F910F91FF90EF90BF
:100410000895E091C705F091C80590E00196880F16
:10042000991FE80FF91F8081918160E070E040E141
:1004300050E00E94220F08954F925F926F927F9238
:100440008F929F92AF92BF92CF92DF92EF92FF92E4
:100450000F931F93CF93DF9380E00E9409022B013B
:100460003C0181E00E94CE015B016C01EE24FF247F
:100470008701C6EBD4E052E5852E51E0952E3AC0B7
:10048000F701EE0FFF1FEE0FFF1FE40DF51D8DB7F7
:100490009EB708970FB6F8949EBF0FBE8DBF2DB7BD
:1004A0003EB72F5F3F4FADB7BEB71296DC93CE93EA
:1004B0001197D90113969C928E9212971596FC93E0
:1004C000EE9314978081918117969C938E93169743
:1004D0000E947410EDB7FEB738960FB6F894FEBFC1
:1004E0000FBEEDBFCE010E94F8000894E11CF11C84
:1004F000011D111DEA14FB040C051D0508F280E026
:10050000DF91CF911F910F91FF90EF90DF90CF90EF
:10051000BF90AF909F908F907F906F905F904F9023
:100520000895EF92FF920F931F9380E00E940902BB
:100530007B018C0181E00E940902F70160837183D5
:100540008283938380E01F910F91FF90EF90089535
:10055000CF93DF9380E00E9409022DB73EB7285069
:1005600030400FB6F8943EBF0FBE2DBFEDB7FEB7BB
:100570003196C6EBD4E0ADB7BEB71296DC93CE93FE
:10058000119722E531E03383228375836483DB0195
:100590008D919C91978386830E9474102DB73EB7EE
:1005A000285F3F4F0FB6F8943EBF0FBE2DBFCE0160
:1005B0000E94F80080E0DF91CF910895833079F0B8
:1005C000843018F4823029F505C0843069F0853014
:1005D00001F515C086EB94E063E671E009C086EB97
:1005E00094E06CE771E004C086EB94E06CEA71E0A3
:1005F0000E946D1086EB94E00E94F800089586EB4F
:1006000094E065EC71E00E946D1086EB94E00E942E
:10061000F8000895823079F0833018F4813029F59C
:1006200005C0833069F0843001F515C086EB94E095
:100630006AED71E009C086EB94E068EF71E004C0F8
:1006400086EB94E061E272E00E946D1086EB94E02C
:100650000E94F800089586EB94E063E472E00E9443
:100660006D1086EB94E00E94F8000895AF92BF925F
:10067000CF92DF92EF92FF920F931F93CF93DF936E
:10068000EC017B01B42E69018091C4058A3028F009
:1006900081E00E940A0381E05CC06115710529F4C4
:1006A00082E00E940A0382E054C0CE010E943E0C08
:1006B000611571058105910511F0AA241EC083E022
:1006C0000E940A0383E045C08A2D90E0FC0173E09C
:1006D000EE0FFF1F7A95E1F7E80FF91FE459FA4F83
:1006E00080819181BE010E94500D882329F084E011
:1006F0000E940A0384E02DC0A3944091C405A4166F
:1007000018F3242F30E0C90163E0880F991F6A9520
:10071000E1F7820F931F82529B4FFC01E457FF4F7A
:10072000F182E082FC01E257FF4FD183C083FC01DC
:10073000E057FF4FB082FC01EF56FF4FD182C082DD
:100740008D569F4FFC01118300834F5F4093C4057A
:1007500080E0DF91CF911F910F91FF90EF90DF909C
:10076000CF90BF90AF900895FF920F931F93CF93B8
:10077000DF93F82E86EB94E065E672E00E946D1040
:1007800086EB94E00E94F80086EB94E06CE972E05E
:100790000E946D1086EB94E00E94F80086EB94E0D6
:1007A00063ED72E00E946D1086EB94E00E94F80009
:1007B00086EB94E063EF72E00E946D1086EB94E0AC
:1007C0000E94F80086EB94E068EF72E00E946D10E2
:1007D00086EB94E00E94F80086EB94E06CE073E016
:1007E0000E946D1086EB94E00E94F80086EB94E086
:1007F00064E273E00E946D1086EB94E00E94F800C2
:1008000086EB94E060E373E00E946D1086EB94E069
:100810000E94F80086EB94E062E373E00E946D10A2
:1008200086EB94E00E94F80086EB94E06BE373E0C3
:100830000E946D1086EB94E00E94F80086EB94E035
:100840006CE972E00E946D1086EB94E00E94F80063
:1008500086EB94E065E672E00E946D1086EB94E012
:100860000E94F80086EB94E067E473E00E946D104C
:1008700086EB94E00E94F8001092C4051092650582
:100880001092640510926705109266051092690532
:10089000109268051092E904109211051092120549
:1008A00010923A0510923B05109263051092C5050F
:1008B0001092C90584E996E040E050E0BA0120E0DA
:1008C00000E00E94000B8AE493E069E371E040E0FD
:1008D00020E030E00FE413E00E94360388E693E066
:1008E00067E171E040E020E030E00AE613E00E94BA
:1008F0003603F0FE16C084E793E061EE71E043E05A
:1009000020E030E00CE713E00E94360383EA93E036
:100910006EED76E040E020E030E00BEA13E00E946C
:100920003603F1FE21C08EEB93E068EA72E041E00D
:1009300020E030E003EC13E00E94360383EE93E006
:1009400061E972E042E020E030E008EE13E00E944E
:1009500036038EE094E06CE172E042E020E030E0AB
:1009600004E114E00E94360300D000D000D0EDB7BF
:10097000FEB73196C6EBD4E0ADB7BEB71296DC93A6
:10098000CE93119780E494E0938382838091C40591
:10099000848315820E9474108DB79EB706960FB699
:1009A000F8949EBF0FBE8DBFCE010E94F80000D00C
:1009B00000D000D0EDB7FEB73196ADB7BEB71296F6
:1009C000DC93CE93119789E594E0938382838AE048
:1009D00090E0958384830E9474108DB79EB706962D
:1009E0000FB6F8949EBF0FBE8DBFCE010E94F800D7
:1009F000CE0167E473E00E946D10CE010E94F80002
:100A000088E290E00E94EF0D9093C8058093C7059F
:100A1000C0E0D0E00091C7051091C80580E190E0EA
:100A20000E94EF0DF801EC0FFD1F80839183229649
:100A3000C832D10579F78EED94E063E070E041E0D3
:100A400001E010E020E030E00E94180B86EB94E01B
:100A50006BE674E00E946D1086EB94E00E94F80053
:100A600086EB94E06EE674E00E946D1086EB94E0F5
:100A70000E94F800DF91CF911F910F91FF90089590
:100A80001F93CF93DF93EC0110E014C0E091C705F2
:100A9000F091C805212F30E0220F331FE20FF31F22
:100AA00080819181BE010E94500D882311F0812F19
:100AB00006C01F5F8091C605181740F38FEFDF91C6
:100AC000CF911F9108950E9440058095881F882727
:100AD000881F0895CF93DF93EB010E944005882380
:100AE00041F00E940902688379838A839B8381E0B5
:100AF00001C080E0DF91CF910895CF93DF93EB01A8
:100B00000E944005882341F00E94CE0168837983CA
:100B10008A839B8381E001C080E0DF91CF910895BB
:100B2000EF92FF920F931F93CF93DF938C01FF24DB
:100B300018C08F2D90E0EC01B3E0CC0FDD1FBA950B
:100B4000E1F7C80FD91FFE01E459FA4F8081918166
:100B5000B8010E94500D882319F0C659DA4F07C01A
:100B6000F3948091C405F81620F3C0E0D0E0CE01E4
:100B7000DF91CF911F910F91FF90EF9008950F9308
:100B80001F93CF93DF93DC018DB79EB70C970FB601
:100B9000F8949EBF0FBE8DBFEDB7FEB7319606EB42
:100BA00014E0CDB7DEB71A83098382E794E093831C
:100BB00082838D919C9111979583848314968C9157
:100BC00014978683178215968C91159780871186C6
:100BD00016968D919C911797938782870E94741027
:100BE0008DB79EB70C960FB6F8949EBF0FBE8DBF03
:100BF000C8010E94F800DF91CF911F910F910895D5
:100C0000DF93CF93CDB7DEB760970FB6F894DEBF12
:100C10000FBECDBF84E996E00E94610A0E94900950
:100C200029873A874B875C876D877E878F87988B6C
:100C3000DE011196FE01399688E001900D928150F7
:100C4000E1F7CE0101960E94BF0560960FB6F894B9
:100C5000DEBF0FBECDBFCF91DF910895CF92DF925F
:100C6000EF92FF920F931F93DF93CF93CDB7DEB731
:100C700060970FB6F894DEBF0FBECDBF6C01E62EB5
:100C8000662309F44BC0DC018D919C910E94900574
:100C90008C01009709F43FC0FF24FC01848190E09F
:100CA0008E159F05DCF581E08093C505858180FF69
:100CB00002C00E940006D801ED91FC91C601B70167
:100CC0000995E82EF801858181FF02C00E94000687
:100CD000D80115968C91159782FF1AC060E070E0DC
:100CE000CB010E94900929873A874B875C876D87E3
:100CF0007E878F87988BDE011196FE01399688E0FA
:100D000001900D928150E1F7CE0101960E94BF053E
:100D10001092C50505C002E0E02E02C013E0E12EEE
:100D20008E2D60960FB6F894DEBF0FBECDBFCF916B
:100D3000DF911F910F91FF90EF90DF90CF9008957A
:100D40001F93CF93DF93C6ECD5E060E373E0AE0171
:100D50000E94D70C8091C7059091C8056091C60587
:100D60000E942E06182FCE010E94270C812F0E9470
:100D7000DE02C6EBD4E0CE016BE674E00E946D109B
:100D8000CE010E94F800CE016EE674E00E946D1064
:100D9000CE010E94F800812FDF91CF911F9108951D
:100DA0008091C905882341F089EE94E00E94A00655
:100DB0001092C90581E0089580E00895CF93DF93F4
:100DC000C6EBD4E0CE0168E874E00E946D10CE015D
:100DD0000E94F8000E94000680E0DF91CF91089504
:100DE000DF93CF93CDB7DEB760970FB6F894DEBF31
:100DF0000FBECDBF84E996E00E94610A0E9490096F
:100E000029873A874B875C876D877E878F87988B8A
:100E1000DE011196FE01399688E001900D92815015
:100E2000E1F7CE0101960E94BF0560960FB6F894D7
:100E3000DEBF0FBECDBFCF91DF9108951F93DF932B
:100E4000CF93CDB7DEB763970FB6F894DEBF0FBE72
:100E5000CDBF8B8B8091B504882329F08B898E3789
:100E600011F01092B5048EED94E0BE016D5E7F4FDF
:100E70000E944F0BDE011196EAEAF4E083E0019054
:100E80000D928150E1F7DE011496E7EAF4E083E089
:100E900001900D928150E1F7DE011796E4EAF4E04B
:100EA00083E001900D928150E1F7DE011A96E1EAAC
:100EB000F4E083E001900D928150E1F7DE011D9690
:100EC000EEE9F4E083E001900D928150E1F7DE015C
:100ED0005096EBE9F4E083E001900D928150E1F748
:100EE0008EED94E0BE016F5F7F4F23E030E040E085
:100EF00050E00E94050C882311F081EF4AC08EED6E
:100F000094E0BE016C5F7F4F23E030E040E050E0B2
:100F10000E94050C882311F083EF3BC08EED94E016
:100F2000BE01695F7F4F23E030E040E050E00E9467
:100F3000050C882311F082EF2CC08EED94E0BE01E9
:100F4000665F7F4F23E030E040E050E00E94050CF8
:100F5000882311F084EF1DC08EED94E0BE01635F25
:100F60007F4F23E030E040E050E00E94050C8823F2
:100F700011F080EF0EC08EED94E0BE01605F7F4FF8
:100F800023E030E040E050E00E94050C882311F09F
:100F900085EF8B8B209166053091670528323105EE
:100FA00064F08B89883049F08D3039F061E070E071
:100FB000803F29F060E070E002C061E070E01B89D2
:100FC000812F80538A3088F081538A3170F0805E9F
:100FD0008A3158F0103249F01F3539F041E050E0C5
:100FE0001D3229F040E050E002C041E050E0809125
:100FF000C905882329F0103F19F01E3709F0B2C047
:101000006115710509F4B0C0103F09F449C0113FE2
:1010100048F41D3071F01E3709F458C0183009F03B
:101020007CC04CC0153F08F4A3C0153F09F075C043
:1010300056C021153105A9F486EB94E06BE674E007
:101040000E946D1086EB94E00E94F80086EB94E01D
:101050006EE674E00E946D1086EB94E00E94F8004A
:1010600081C081E08093C905F901E252FB4F14AAC7
:1010700069EE74E02F5F3F4FAB01475D5F4FCB01DF
:10108000BA01A9010E9464101092650510926405CE
:1010900010926705109266051092120581E069C0F2
:1010A00081E08093B40486EB94E061E974E00E94EF
:1010B0006D1086EB94E00E94F8005AC080916405A0
:1010C00090916505181619062CF152C08091B5044F
:1010D000882309F04BC081E08093B50449C080911A
:1010E0006405909165058217930709F441C02115A5
:1010F0003105F1F1AC014F5F5F4F509365054093AF
:1011000064054217530731F482529B4FFC0184A9B6
:101110000E94F4000E9419012BC04115510541F1B4
:10112000283231052CF5812F0E94F40020916405AE
:1011300030916505F901E252FB4F14AB80916605D1
:1011400090916705019690936705809366052F5FE0
:101150003F4F309365052093640582529B4FFC01FD
:1011600014AA06C084E005C082E003C083E001C089
:1011700080E063960FB6F894DEBF0FBECDBFCF916F
:10118000DF911F9108950F931F938C01E0919306B7
:10119000E530D4F51E1634F5FF27E7FDF0953197BD
:1011A00088E290E0E89FB001E99F700DF89F700D14
:1011B000112466537A4FC8010E94500D882309F00C
:1011C0005CC0E091930688E2E802F0011124E65346
:1011D000FA4F802F912FDC0188E20D90019281500F
:1011E000E1F70EC088E2E802F0011124E653FA4F5D
:1011F000802F912FDC0188E20D9001928150E1F760
:10120000809193068F5F37C0FF27E7FDF0953197F8
:1012100088E290E0E89FB001E99F700DF89F700DA3
:10122000112466537A4FC8010E94500D882329F576
:10123000EAECF5E0DF01989680EA0D90019281508A
:10124000E1F780919306992787FD9095019728E211
:1012500030E0829FF001839FF00D929FF00D1124EA
:10126000E653FA4F802F912FDC0188E20D90019216
:101270008150E1F785E0809393061F910F910895C7
:10128000853038F428E2829F9001112426533A4F8A
:1012900002C020E030E0C901089520919206422F5B
:1012A000552747FD509580919306992787FD909586
:1012B00001974817590754F42F5F2093920688E24C
:1012C00028029001112426533A4F02C020E030E05A
:1012D000C901089520919206121654F421502093CA
:1012E000920688E228029001112426533A4F02C048
:1012F00020E030E0C9010895809193068093920622
:101300000895109293060E947C091092CA051092CB
:10131000F20510921A061092420610926A0608957B
:101320007F928F929F92AF92BF92CF92DF92EF9275
:10133000FF920F931F93DF93CF93CDB7DEB728971C
:101340000FB6F894DEBF0FBECDBF28EE33E040E00D
:1013500050E00E94CD0D69017A01162F772ECA0147
:10136000B90120E13EE040E050E00E94CD0D022FA7
:1013700029833A834B835C838CE3882E912CA12CA8
:10138000B12CC701B601A50194010E94CD0DC62E56
:10139000CA01B901A50194010E94CD0D812F972D9D
:1013A00098878F83202F3A814B815C817C2D988593
:1013B00028960FB6F894DEBF0FBECDBFCF91DF9158
:1013C0001F910F91FF90EF90DF90CF90BF90AF9063
:1013D0009F908F907F9008958F929F92AF92BF922F
:1013E000DF92EF92FF920F931F93DF93CF93CDB7CE
:1013F000DEB728970FB6F894DEBF0FBECDBF7B01D6
:101400008C0120E13EE040E050E00E94CD0DD22E64
:1014100029833A834B835C839CE3892E912CA12CF6
:10142000B12CC801B701A50194010E94CD0DE62E93
:10143000CA01B901A50194010E94CD0D18861F8231
:101440002D2D3A814B815C817E2D80E098852896F8
:101450000FB6F894DEBF0FBECDBFCF91DF911F91C5
:101460000F91FF90EF90DF90BF90AF909F908F9083
:1014700008951F93CF93DF93EC011D8168817981DB
:101480008A819B8120E13EE040E050E00E94A20D75
:101490009B01AC01210F311D411D511D9C818CE32D
:1014A000989FC0011124AA2797FDA095BA2F280F55
:1014B000391F4A1F5B1FB901CA01DF91CF911F91EC
:1014C0000895EF92FF920F931F93CF93DF93EC0158
:1014D000EE80FF8000E010E0688179818A819B8145
:1014E00020E83EEE46E350E00E94A20DE60EF71E15
:1014F000081F191F6C8170E080E090E020E63AEE52
:1015000040E050E00E94A20DE60EF71E081F191FD2
:101510004D8150E028EE33E0429FC001439F900D83
:10152000529F900D1124AA2797FDA095BA2FE80E7F
:10153000F91E0A1F1B1FB701C801DF91CF911F9130
:101540000F91FF90EF9008950F931F93DF93CF9328
:10155000CDB7DEB728970FB6F894DEBF0FBECDBF6C
:101560008C01CB01BA010E94EC0929833A834B8399
:101570005C836D837E838F839887802F912FDC011E
:10158000FE01319688E001900D928150E1F7289696
:101590000FB6F894DEBF0FBECDBFCF91DF911F9184
:1015A0000F9108950F931F93DF93CF93CDB7DEB7BD
:1015B00028970FB6F894DEBF0FBECDBF8C01CB01CC
:1015C000BA010E94900929833A834B835C836D831F
:1015D0007E838F839887802F912FDC01FE013196C7
:1015E00088E001900D928150E1F728960FB6F894AB
:1015F000DEBF0FBECDBFCF91DF911F910F91089538
:101600000F93FC01822F40835183628373833CE3F9
:10161000632F0E94C10D9483802F0E94C10D95837A
:101620000F910895FC01808191810E94890E089597
:10163000AF92BF92CF92DF92EF92FF920F931F93E0
:10164000DF93CF930F92CDB7DEB75C016B017801CA
:101650008901842F90E09C01269FC001279F900D57
:10166000369F900D112449830E94EF0DF501808370
:101670009183D382C2821582148249814683E78294
:10168000F086018712870F90CF91DF911F910F9104
:10169000FF90EF90DF90CF90BF90AF9008950F93A1
:1016A0001F93CF93DF93EC018B018C819D812A8165
:1016B0003B818217930780F18F8180FF47C068814B
:1016C00079814E8150E0C9010197849F9001859FE7
:1016D000300D949F300D1124460F571FCB01BA01D6
:1016E000A9010E9464104E81242F30E08C819D81DD
:1016F0000197829FB001839F700D929F700D1124FE
:1017000028813981260F371FC901B80150E00E9496
:1017100064108A819B8116C04E81242F30E0289F5F
:10172000B001299F700D389F700D112428813981D7
:10173000260F371FC901B80150E00E9464108C8148
:101740009D8101969D838C8381E001C080E0DF91C3
:10175000CF911F910F9108951F93CF93DF93EC01C9
:10176000CB012C813D8121153105A9F14E813881B4
:101770002981632F722F50E00E94641010E01EC078
:10178000E881F9814E81A42FB0E08A9FB0018B9F40
:10179000700D9A9F700D11246E0F7F1F01968A9F06
:1017A00090018B9F300D9A9F300D11242E0F3F1FFB
:1017B000CB01B90150E00E9464101F5F2C813D8174
:1017C000812F90E082179307D8F2215030403D835B
:1017D0002C8381E001C080E0DF91CF911F910895BB
:1017E000FC0181E0448155812281338142175307F6
:1017F00008F480E0089541E0FC0124813581211541
:10180000310509F040E0842F0895FC01DA01C90197
:101810002481358140E050E0281739074A075B07EB
:10182000A0F0268130E0289FA001299F500D389F0D
:10183000500D1124808191810E9457109C0181E0FC
:101840002115310519F080E0089580E00895FC012C
:10185000108208950F931F93FB01DA01E80FF91F1F
:10186000A20FB31F80E090E003C021912D93019659
:1018700080179107D0F31F910F910895E82FF92F4A
:1018800020E030E0A90104C02F5F3F4F4F4F5F4F72
:10189000309719F081918823B9F7B901CA010895E9
:1018A000AF92BF92CF92DF92EF92FF920F931F936E
:1018B000CF93DF938C010E943E0C6B01F801EE2464
:1018C000FF2407C081918150803230F40894E11CDC
:1018D000F11CEC14FD04B4F3EC14FD0459F481E0A4
:1018E00090E00E94EF0DA82EE5017E01F92EE701A0
:1018F000188224C0C6010197F801E80FF91F20E003
:1019000030E007C041914150403228F42F5F3F4FF3
:10191000019697FFF7CFCE18DF08C21AD30AC60187
:101920000E94EF0DEC015E01B92EE501C801B7017F
:10193000A50120E030E086010E942A0CCE01DF9153
:10194000CF911F910F91FF90EF90DF90CF90BF90BC
:10195000AF9008950F931F93CF93DF93EC018B010A
:10196000CB010E943E0C20E030E0A0E00CC0819151
:10197000B81719F42F5F3F4F05C04F5F5F4F4617F1
:101980005707A8F3AF5FFE01EA0FF11DB081BB233B
:1019900031F0802F912FFC0140E050E0F0CF2F5F1D
:1019A0003F4FC901DF91CF911F910F9108954F9241
:1019B0005F926F927F928F929F92AF92BF92CF92DF
:1019C000DF92EF92FF920F931F93CF93DF93782EC6
:1019D000692E962E872E6A010E94AA0C082F892D47
:1019E000982D0E943E0C2B01D6010C93C301A92E09
:1019F000B82EEE24FF24C0E0D0E060E070E0C40127
:101A0000E92FF82D80E090E030C0D5012C91319184
:101A1000231711F0222341F5C701880F991F8E016A
:101A2000061B170BD6011196ED91FC911297E80F4A
:101A3000F91F0190F081E02DE00FF11F1082119647
:101A4000ED91FC911297E80FF91F40815181872D8C
:101A5000962D20E030E00E942A0CBE016F5F7F4F80
:101A60000894E11CF11C04C001968415950568F2E8
:101A7000F50181915F01882311F02196C0CFDF919C
:101A8000CF911F910F91FF90EF90DF90CF90BF907B
:101A9000AF909F908F907F906F905F904F90089540
:101AA000CF92DF92EF92FF920F931F93CF93DF932A
:101AB0006C01EB010E943E0C7B018C01CE010E9467
:101AC0003E0CE616F7060807190781F59E01EC2D76
:101AD000FD2D80E090E003C0541741F50196BF0151
:101AE000309761F05191552379F02115310561F05E
:101AF000D9014D919D01442379F706C09E01280F1D
:101B0000391F2115310591F4C80FD91F209729F4E9
:101B100081E06115710551F40CC06115710541F04A
:101B200081E02881FB019081291719F080E001C034
:101B300081E0DF91CF911F910F91FF90EF90DF90A7
:101B4000CF900895629FD001739FF001829FE00DB6
:101B5000F11D649FE00DF11D929FF00D839FF00D2C
:101B6000749FF00D659FF00D9927729FB00DE11DD8
:101B7000F91F639FB00DE11DF91FBD01CF011124B5
:101B80000895991B79E004C0991F961708F0961BD9
:101B9000881F7A95C9F780950895A1E21A2EAA1B8D
:101BA000BB1BFD010DC0AA1FBB1FEE1FFF1FA2170D
:101BB000B307E407F50720F0A21BB30BE40BF50B0A
:101BC000661F771F881F991F1A9469F76095709593
:101BD000809590959B01AC01BD01CF010895CF93F5
:101BE000DF938230910510F482E090E0E0919E0650
:101BF000F0919F0640E050E020E030E026C0608198
:101C0000718168177907E0F06817790781F482819C
:101C100093812115310531F0D90113969C938E9350
:101C200012972BC090939F0680939E0626C0411565
:101C3000510519F06417750718F4AB01E901DF01CC
:101C40009F0172816381E72FF62F3097C1F641150E
:101C5000510501F1481B590B4430510580F412968F
:101C60008D919C911397209719F09B838A8304C0D0
:101C700090939F0680939E06FD01329646C0FD011B
:101C8000E40FF51F819391934250504011965C935D
:101C90004E933BC020919C0630919D062115310545
:101CA00041F42091AF043091B00430939D0620930D
:101CB0009C062091B1043091B2042115310541F404
:101CC0002DB73EB74091AD045091AE04241B350BA7
:101CD000E0919C06F0919D06E217F307A0F42E1BFD
:101CE0003F0B2817390778F0AC014E5F5F4F241780
:101CF000350748F04E0F5F1F50939D0640939C069A
:101D00008193919302C0E0E0F0E0CF01DF91CF91A9
:101D10000895CF93DF93009709F491C0FC013297A7
:101D20001382128260919E0670919F066115710563
:101D300081F420813181280F391F80919C06909178
:101D40009D068217930799F5F0939D06E0939C06F4
:101D500076C0DB0180E090E002C0CD01D901AE1772
:101D6000BF0748F412962D913C9113972115310528
:101D7000A1F7CD0121C0B383A283EF01499159910D
:101D80009E01240F351FA217B30779F42D913C91C2
:101D90001197240F351F2E5F3F4F318320831296FA
:101DA0002D913C91139733832283009729F4F0936C
:101DB0009F06E0939E0643C0DC011396FC93EE93CE
:101DC00012974D915D91A40FB51FEA17FB0769F4B7
:101DD00020813181240F351F2E5F3F4FEC01398365
:101DE0002883228133813B832A83E0E0F0E002C034
:101DF000FB01BC01DB0112968D919C91139700971A
:101E0000B9F79B012E5F3F4F8D919C911197820FE7
:101E1000931F40919C0650919D064817590779F4ED
:101E2000309729F410929F0610929E0602C01382EA
:101E300012822250304030939D0620939C06DF9101
:101E4000CF9108952F923F924F925F927F928F92FF
:101E50009F92AF92BF92CF92DF92EF92FF920F9339
:101E60001F93CF93DF934B01EA016115710519F0C0
:101E7000FB0180839183209739F09E0122503040EE
:101E80002332310508F0F4C0A82EB92EF5011191C6
:101E90005F017F01812F90E00E944F100097B1F702
:101EA0001D3229F4F50111917F0101E006C01B32BA
:101EB00019F4F50111917F0100E0209719F0C0316C
:101EC000D105B9F4103381F4F7018081883711F01E
:101ED000883551F4F701118182E090E0E80EF91E97
:101EE0000260C0E1D0E005C0209719F41033C1F4BE
:101EF00022C0C830D105F9F0C930D10524F4C23070
:101F0000D10509F507C0CA30D10551F0C031D1055E
:101F1000D1F427C0A12CB12CC12CF0E4DF2E26C0B7
:101F2000CAE0D0E0ECECAE2EECECBE2EECECCE2E0B
:101F3000ECE0DE2E1BC0C8E0D0E0A12CB12CC12CFF
:101F400070E1D72E13C09E01442737FD4095542FD2
:101F500060E070E080E090E80E94CD0D59016A01D8
:101F600005C0A12CB12CC12C68E0D62E40E060E069
:101F700070E0CB011E01442437FC4094542C50EDFA
:101F8000752E710EE72DEA3070F0212F21542A3181
:101F900018F439EC732E06C0212F21562A3130F562
:101FA00029EA722E710E272D30E02C173D07F4F42C
:101FB00047FD18C0A616B706C806D90680F0A201CC
:101FC00091010E94A20D670D711D811D911D61304F
:101FD000F0E07F07F0E08F07F0E89F0710F04FEF89
:101FE00001C041E0F70111917F01C9CF8114910433
:101FF00091F0442339F00894E108F108F401F182EA
:10200000E08209C001FF1BC0970122503040F4015B
:102010003183208314C047FF12C000FF05C060E079
:1020200070E080E090E804C06FEF7FEF8FEF9FE7F4
:1020300022E230E03093A1062093A00616C000FFF4
:1020400008C090958095709561957F4F8F4F9F4FF9
:102050000CC097FF0AC082E290E09093A1068093A3
:10206000A0066FEF7FEF8FEF9FE79B01AC0103C0EE
:1020700020E030E0A901B901CA01DF91CF911F91A1
:102080000F91FF90EF90DF90CF90BF90AF909F9017
:102090008F907F905F904F903F902F900895911177
:1020A0002DC2803219F089508550D0F70895FB0178
:1020B000DC0104C08D910190801921F44150504001
:1020C000C8F7881B990B0895FB01DC0102C0019041
:1020D0000D9241505040D8F70895FB01DC0101906A
:1020E0000D920020E1F70895AEE0B0E0EAE7F0E1FC
:1020F0000C942F130D891E8986E08C831A83098323
:102100008FEF9FE79E838D839E01275E3F4FCE0119
:1021100001966F89788DA9010E949710EF81F8854B
:10212000E00FF11F10822E96E4E00C944B13ACE00C
:10213000B0E0EDE9F0E10C9421136C011B018A0180
:10214000FC0117821682838181FFD1C12E01089480
:10215000411C511CF6019381F10193FD859193FF80
:1021600081911F01882309F4BEC1853239F493FDA2
:10217000859193FF81911F01853229F490E0B6018A
:102180000E949712E7CFEE24FF2420E02032B0F423
:102190008B3269F08C3228F4803251F0833271F442
:1021A0000BC08D3239F0803349F421602CC022609D
:1021B000246029C0286027C0206125C027FD2CC0CD
:1021C000382F30533A3098F426FF08C08E2D880FF0
:1021D000E82EEE0CEE0CE80EE30E15C08F2D880FE6
:1021E000F82EFF0CFF0CF80EF30E20620CC08E329E
:1021F00021F426FD78C1206406C08C3611F42068D5
:1022000002C0883649F4F10193FD859193FF8191D5
:102210001F01882309F0BACF982F9554933018F0F6
:102220009052933028F40C5F1F4FFFE3F9830DC0E9
:10223000833631F0833771F0833509F060C022C0F6
:10224000F801808189830E5F1F4F420171E0A72E44
:10225000B12C16C062E0662E712C600E711EF80162
:102260008080918026FF03C06E2D70E002C06FEF6A
:102270007FEFC4012C870E948C125C0183012C85A6
:102280002F7717C052E0652E712C600E711EF80179
:102290008080918026FF03C06E2D70E002C06FEF3A
:1022A0007FEFC4012C870E9481125C012C8520687D
:1022B000830123FD20C008C080E290E0B6012C8796
:1022C0000E949712FA942C858F2D90E0A816B906DB
:1022D00098F311C0F40127FD859127FF81914F01EB
:1022E00090E0B6012C870E9497122C85F110FA9489
:1022F0000894A108B108A114B10461F7F1C08436B3
:1023000011F0893649F527FF08C0F8016081718115
:10231000828193810C5F1F4F09C0F8016081718138
:10232000882777FD8095982F0E5F1F4F4FE6B42EBC
:10233000B22297FF09C090958095709561957F4F67
:102340008F4F9F4FF0E8BF2AA2012AE030E00E94A1
:10235000C312782E741845C0853731F43FEEB32E82
:10236000B2222AE030E025C099EFB92EB2228F3692
:10237000C1F0803720F4883509F0B5C00DC0803732
:1023800021F0883709F0AFC002C020E1B22AB4FEC4
:102390000BC084E0B82A08C0B4FE09C0E6E0BE2A3B
:1023A00006C028E030E005C020E130E002C020E1B6
:1023B00032E0B7FE08C0F8016081718182819381AB
:1023C0000C5F1F4F07C0F8016081718180E090E0D1
:1023D0000E5F1F4FA2010E94C312782E7418FFE7F0
:1023E000BF22B6FE0BC02EEFB2227E1438F4B4FE2C
:1023F00007C0B2FC05C08FEEB82202C0A72C01C0F6
:10240000AE2C8B2D90E0B4FE0DC0FE01E70DF11D4A
:102410002081203319F4E9EEBE2209C0A394B2FE54
:1024200006C004C086789070009709F0A3948B2CA6
:102430009924B3FC14C0B0FE0FC0AF1428F4E72CED
:10244000EF0CEA18AF2C08C0E72C06C080E290E041
:10245000B6010E949712A394AF14C0F304C0AF1446
:1024600010F4FA1801C0FF2484FE0FC080E390E04E
:10247000B6010E94971282FE1FC081FE03C088E54C
:1024800090E010C088E790E00DC0C401867890709D
:10249000009791F081FC02C080E201C08BE2B7FCA2
:1024A0008DE290E0B6010E94971206C080E390E0B2
:1024B000B6010E949712EA947E14C0F37A94F20156
:1024C000E70DF11D808190E0B6010E949712772000
:1024D000A9F706C080E290E0B6010E949712FA9434
:1024E000FF20C1F737CEF6012681378102C02FEFDA
:1024F0003FEFC9012C96E2E10C943D139927882700
:102500000895FC010590615070400110D8F7809546
:1025100090958E0F9F1F0895FC01615070400190AF
:102520000110D8F7809590958E0F9F1F08950F93F7
:102530001F93CF93DF938C01EB018B8181FF1BC035
:1025400082FF0DC02E813F818C819D812817390724
:1025500064F4E881F9810193F983E88306C0E88592
:10256000F985802F0995009731F48E819F8101961E
:102570009F838E8302C00FEF1FEFC801DF91CF91C1
:102580001F910F910895FA01AA27283051F12031A7
:1025900081F1E8946F936E7F6E5F7F4F8F4F9F4FF7
:1025A000AF4FB1E03ED0B4E03CD0670F781F891F39
:1025B0009A1FA11D680F791F8A1F911DA11D6A0F07
:1025C000711D811D911DA11D20D009F468943F91BA
:1025D0002AE0269F11243019305D3193DEF6CF01B9
:1025E0000895462F4770405D4193B3E00FD0C9F77F
:1025F000F6CF462F4F70405D4A3318F0495D31FDEC
:102600004052419302D0A9F7EACFB4E0A69597953E
:10261000879577956795BA95C9F700976105710514
:1026200008959B01AC010A2E06945795479537955E
:102630002795BA95C9F7620F731F841F951FA01DB8
:1026400008952F923F924F925F926F927F928F9256
:102650009F92AF92BF92CF92DF92EF92FF920F9331
:102660001F93CF93DF93CDB7DEB7CA1BDB0B0FB63B
:10267000F894DEBF0FBECDBF09942A8839884888F8
:102680005F846E847D848C849B84AA84B984C8848E
:10269000DF80EE80FD800C811B81AA81B981CE0F85
:1026A000D11D0FB6F894DEBF0FBECDBFED0108956A
:0426B000F894FFCFCC
:1026B4002D68000D0A4465633A2025640D0A4865B7
:1026C400783A2030782530345825303458002D6637
:1026D400000D0A2D663A2054525545000D0A2D6608
:1026E4003A2046414C534500743100000D0A436FB3
:1026F400756E7420636F6D6D616E643A202564009D
:102704000D0A5B5D202D206D616E6461746F7279BA
:1027140020617267756D656E740D0A3C3E202D2034
:102724006F7074696F6E616C20617267756D656E30
:10273400740D0A7C202D2063686F696365206265CF
:10274400747765656E20617267756D656E7473006C
:102754000D0A0A252D313073202D202573000D0A12
:102764002D2D2D2D2D2D2D2D2D2D2D2D2D2D2D2D95
:102774002D2D2D2D2D2D2D2D2D2D2D2D2D2D2D2D85
:102784002D2D2D2D2D2D2D2D2D2D2D2D2D2D2D2D75
:102794002D2D2D2D2D2D2D2D2D2D2D2D2D2D2D2D65
:1027A4002D000D0A3078253038583A2030782530FD
:1027B4003858000A0D6572723A20436F6D6D616E70
:1027C40064206E6F7420666F756E64000A0D657206
:1027D400723A204661756C7420617267756D656E1E
:1027E40074206F72204661756C74206E756D62651D
:1027F4007220617267756D656E7473000A0D65727F
:10280400723A20457865637574652066756E6374E5
:10281400696F6E73000A0D6D73673A20436F6D6DB7
:10282400616E642061626F7274000A0D61646420D9
:10283400636D64206572723A204D656D6F72792004
:1028440069732066756C6C000A0D61646420636DA5
:1028540064206572723A2046756E6374696F6E20E7
:1028640063616C6C6261636B206973204E554C4CE0
:10287400000A0D61646420636D64206572723A20FD
:10288400456D707479206E616D6520636F6D6D6147
:102894006E64000A0D61646420636D642065727265
:1028A4003A205265747279206E616D6520636F6D94
:1028B4006D616E64000D0A2A2A2A2A2A2A2A2A2AE3
:1028C4002A2A2A2A2A2A2A2A2A2A2A2A2A2A2A2A64
:1028D4002A2A2A2A2A2A2A2A2A2A2A2A2A2A2A2A54
:1028E4002A2A2A2A2A2A2A2A2A2A2A000D0A7C2063
:1028F40020202020202020202020202020202020D4
:1029040020202020202020202020202020202020C3
:1029140020202020202020202020202020202020B3
:10292400207C000D0A7C2020202020202020202034
:102934002020202020202020205465726D696E61A3
:102944006C200076312E34002020202020202020EE
:10295400202020202020202020207C000D0A7C2004
:1029640020202020202020202020737720766572CC
:102974002E3A20004175672031362032303137003D
:10298400200032313A33333A3438002020202020DA
:1029940020202020207C000D0A0068656C700068EF
:1029A400656C70206279207465726D696E616C204B
:1029B400636F6D6D616E64007E0072657365742073
:1029C4006370750073657474696D65007365742054
:1029D40063757272656E742074696D650A0D09738E
:1029E400657474696D65205B685D205B6D5D205B5B
:1029F400735D0067657474696D65007072696E74E7
:102A04002063757272656E742074696D65006370FD
:102A1400757200726561642066726F6D2043505553
:102A2400207265670A0D0963707572205B616464C6
:102A3400725D006370757700777269746520696EE2
:102A440020435055207265670A0D0963707577201D
:102A54005B616464725D205B646174615D006370DA
:102A6400757262007265616420626C6F636B2066CC
:102A7400726F6D204350550A0D09637075726220A0
:102A84005B616464725D205B6C656E6774685D0095
:102A94000D0A436F756E74206261736520636F6DF8
:102AA4006D616E643A202564000D0A4D61782063DF
:102AB4006F6D6D616E643A202564000A0D003E3E20
:102AC40020000D0A253032643A253032643A25302C
:102AD40032642E25303364000D0A54696D653A2042
:102AE400000D0A4B657920455343001B5B331B1BC8
:102AF4001B1B5B441B5B431B5B421B5B412000A213
:042B040006000000C7
:00000001FF
